{
  "abi": [
    {
      "inputs": [
        {
          "internalType": "uint256",
          "name": "tokenId",
          "type": "uint256"
        }
      ],
      "name": "attributes",
      "outputs": [
        {
          "internalType": "string",
          "name": "",
          "type": "string"
        }
      ],
      "stateMutability": "view",
      "type": "function"
    },
    {
      "inputs": [
        {
          "internalType": "uint256",
          "name": "tokenId",
          "type": "uint256"
        }
      ],
      "name": "svg",
      "outputs": [
        {
          "internalType": "bytes",
          "name": "",
          "type": "bytes"
        }
      ],
      "stateMutability": "view",
      "type": "function"
    },
    {
      "inputs": [
        {
          "internalType": "uint256",
          "name": "tokenId",
          "type": "uint256"
        }
      ],
      "name": "tokenURI",
      "outputs": [
        {
          "internalType": "string",
          "name": "",
          "type": "string"
        }
      ],
      "stateMutability": "view",
      "type": "function"
    }
  ],
  "bytecode": {
    "object": "0x608060405234801561001057600080fd5b50611844806100206000396000f3fe608060405234801561001057600080fd5b50600436106100415760003560e01c806344b285db14610046578063c87b56dd1461006f578063d05dcc6a14610082575b600080fd5b610059610054366004610e7f565b610095565b6040516100669190610ee8565b60405180910390f35b61005961007d366004610e7f565b6104d9565b610059610090366004610e7f565b610553565b606081816100a2826109d2565b61010c836001600160a01b031663c55dae636040518163ffffffff1660e01b8152600401602060405180830381865afa1580156100e3573d6000803e3d6000fd5b505050506040513d601f19601f820116820180604052508101906101079190610efb565b6109d2565b61014d846001600160a01b03166347ccca026040518163ffffffff1660e01b8152600401602060405180830381865afa1580156100e3573d6000803e3d6000fd5b60405160200161015f93929190610f40565b6040516020818303038152906040529050806101e4836001600160a01b031663c0fa087a6040518163ffffffff1660e01b8152600401602060405180830381865afa1580156101b2573d6000803e3d6000fd5b505050506040513d601f19601f820116820180604052508101906101d6919061116f565b6001600160801b03166109ee565b610225846001600160a01b031663a7f3af996040518163ffffffff1660e01b8152600401602060405180830381865afa1580156101b2573d6000803e3d6000fd5b610293856001600160a01b031663978bbdb96040518163ffffffff1660e01b8152600401602060405180830381865afa158015610266573d6000803e3d6000fd5b505050506040513d601f19601f8201168201806040525081019061028a9190611198565b61ffff166109ee565b6040516020016102a694939291906111bc565b60405160208183030381529060405290508061038f836001600160a01b03166347ccca026040518163ffffffff1660e01b8152600401602060405180830381865afa1580156102f9573d6000803e3d6000fd5b505050506040513d601f19601f8201168201806040525081019061031d9190610efb565b6040516370a0823160e01b81526001600160a01b03868116600483015291909116906370a08231906024015b602060405180830381865afa158015610366573d6000803e3d6000fd5b505050506040513d601f19601f8201168201806040525081019061038a9190611343565b6109ee565b6104af60006001600160a01b0316856001600160a01b031663c55dae636040518163ffffffff1660e01b8152600401602060405180830381865afa1580156103db573d6000803e3d6000fd5b505050506040513d601f19601f820116820180604052508101906103ff9190610efb565b6001600160a01b03161461049f57846001600160a01b031663c55dae636040518163ffffffff1660e01b8152600401602060405180830381865afa15801561044b573d6000803e3d6000fd5b505050506040513d601f19601f8201168201806040525081019061046f9190610efb565b6040516370a0823160e01b81526001600160a01b03878116600483015291909116906370a0823190602401610349565b846001600160a01b0316316109ee565b6040516020016104c19392919061135c565b60408051601f19818403018152919052949350505050565b606060006104e6836109ee565b6104f76104f285610095565b610a81565b61050085610553565b6040516020016105129392919061146b565b604051602081830303815290604052905061052c81610a81565b60405160200161053c919061159c565b604051602081830303815290604052915050919050565b6060600082905060006105926040518060400160405280600c81526020016b506f6f6c206164647265737360a01b81525061058d846109d2565b610bd4565b6105f96040518060400160405280600a8152602001692130b9b2903a37b5b2b760b11b81525061058d856001600160a01b031663c55dae636040518163ffffffff1660e01b8152600401602060405180830381865afa1580156100e3573d6000803e3d6000fd5b6106596040518060400160405280600381526020016213919560ea1b81525061058d866001600160a01b03166347ccca026040518163ffffffff1660e01b8152600401602060405180830381865afa1580156100e3573d6000803e3d6000fd5b6106d36040518060400160405280601b81526020017f5669727475616c206261736520746f6b656e207265736572766573000000000081525061058d876001600160a01b031663c0fa087a6040518163ffffffff1660e01b8152600401602060405180830381865afa1580156101b2573d6000803e3d6000fd5b610744604051806040016040528060148152602001735669727475616c204e465420726573657276657360601b81525061058d886001600160a01b031663a7f3af996040518163ffffffff1660e01b8152600401602060405180830381865afa1580156101b2573d6000803e3d6000fd5b6107b16040518060400160405280601081526020016f02332b2903930ba329014313839949d160851b81525061058d896001600160a01b031663978bbdb96040518163ffffffff1660e01b8152600401602060405180830381865afa158015610266573d6000803e3d6000fd5b61086d6040518060400160405280600b81526020016a4e46542062616c616e636560a81b81525061058d8a6001600160a01b03166347ccca026040518163ffffffff1660e01b8152600401602060405180830381865afa158015610819573d6000803e3d6000fd5b505050506040513d601f19601f8201168201806040525081019061083d9190610efb565b6040516370a0823160e01b81526001600160a01b038d8116600483015291909116906370a0823190602401610349565b6109bb604051806040016040528060128152602001714261736520746f6b656e2062616c616e636560701b81525061058d60006001600160a01b03168c6001600160a01b031663c55dae636040518163ffffffff1660e01b8152600401602060405180830381865afa1580156108e7573d6000803e3d6000fd5b505050506040513d601f19601f8201168201806040525081019061090b9190610efb565b6001600160a01b0316146109ab578b6001600160a01b031663c55dae636040518163ffffffff1660e01b8152600401602060405180830381865afa158015610957573d6000803e3d6000fd5b505050506040513d601f19601f8201168201806040525081019061097b9190610efb565b6040516370a0823160e01b81526001600160a01b038e8116600483015291909116906370a0823190602401610349565b8b6001600160a01b0316316109ee565b6040516020016104c19897969594939291906115e1565b60606109e86001600160a01b0383166014610c00565b92915050565b606060006109fb83610da7565b600101905060008167ffffffffffffffff811115610a1b57610a1b6116ab565b6040519080825280601f01601f191660200182016040528015610a45576020820181803683370190505b5090508181016020015b600019016f181899199a1a9b1b9c1cb0b131b232b360811b600a86061a8153600a8504945084610a4f57509392505050565b60608151600003610aa057505060408051602081019091526000815290565b60006040518060600160405280604081526020016117cf6040913990506000600384516002610acf91906116d7565b610ad991906116ea565b610ae490600461170c565b67ffffffffffffffff811115610afc57610afc6116ab565b6040519080825280601f01601f191660200182016040528015610b26576020820181803683370190505b509050600182016020820185865187015b80821015610b92576003820191508151603f8160121c168501518453600184019350603f81600c1c168501518453600184019350603f8160061c168501518453600184019350603f8116850151845350600183019250610b37565b5050600386510660018114610bae5760028114610bc157610bc9565b603d6001830353603d6002830353610bc9565b603d60018303535b509195945050505050565b60608282604051602001610be9929190611723565b604051602081830303815290604052905092915050565b60606000610c0f83600261170c565b610c1a9060026116d7565b67ffffffffffffffff811115610c3257610c326116ab565b6040519080825280601f01601f191660200182016040528015610c5c576020820181803683370190505b509050600360fc1b81600081518110610c7757610c776117a1565b60200101906001600160f81b031916908160001a905350600f60fb1b81600181518110610ca657610ca66117a1565b60200101906001600160f81b031916908160001a9053506000610cca84600261170c565b610cd59060016116d7565b90505b6001811115610d4d576f181899199a1a9b1b9c1cb0b131b232b360811b85600f1660108110610d0957610d096117a1565b1a60f81b828281518110610d1f57610d1f6117a1565b60200101906001600160f81b031916908160001a90535060049490941c93610d46816117b7565b9050610cd8565b508315610da05760405162461bcd60e51b815260206004820181905260248201527f537472696e67733a20686578206c656e67746820696e73756666696369656e74604482015260640160405180910390fd5b9392505050565b60008072184f03e93ff9f4daa797ed6e38ed64bf6a1f0160401b8310610de65772184f03e93ff9f4daa797ed6e38ed64bf6a1f0160401b830492506040015b6d04ee2d6d415b85acef81000000008310610e12576d04ee2d6d415b85acef8100000000830492506020015b662386f26fc100008310610e3057662386f26fc10000830492506010015b6305f5e1008310610e48576305f5e100830492506008015b6127108310610e5c57612710830492506004015b60648310610e6e576064830492506002015b600a83106109e85760010192915050565b600060208284031215610e9157600080fd5b5035919050565b60005b83811015610eb3578181015183820152602001610e9b565b50506000910152565b60008151808452610ed4816020860160208601610e98565b601f01601f19169290920160200192915050565b602081526000610da06020830184610ebc565b600060208284031215610f0d57600080fd5b81516001600160a01b0381168114610da057600080fd5b60008151610f36818560208601610e98565b9290920192915050565b7f3c73766720786d6c6e733d22687474703a2f2f7777772e77332e6f72672f323081527f30302f737667222076696577426f783d2230203020343030203430302220737460208201527f796c653d2277696474683a313030253b6261636b67726f756e643a626c61636b60408201527f3b66696c6c3a77686974653b666f6e742d66616d696c793a73657269663b223e60608201527f3c7465787420783d22323470782220793d22323470782220666f6e742d73697a608082015266329e911899111f60c91b60a082018190527f43617669617220414d4d207072697661746520706f6f6c20706f736974696f6e60a7830152661e17ba32bc3a1f60c91b60c78301527f3c7465787420783d22323470782220793d22343870782220666f6e742d73697a60ce83015260ee8201526d0283934bb30ba32903837b7b61d160951b60f582015260006111666110ac61116061114f611116836111106110f86110bf836101038c018f610f24565b661e17ba32bc3a1f60c91b815260070190565b7f3c7465787420783d22323470782220793d22373270782220666f6e742d73697a815266329e911899111f60c91b602082015260270190565b6b02130b9b2903a37b5b2b71d160a51b8152600c0190565b8a610f24565b7f3c7465787420783d22323470782220793d22393670782220666f6e742d73697a815266329e911899111f60c91b602082015260270190565b64027232a1d160dd1b815260050190565b85610f24565b95945050505050565b60006020828403121561118157600080fd5b81516001600160801b0381168114610da057600080fd5b6000602082840312156111aa57600080fd5b815161ffff81168114610da057600080fd5b600085516111ce818460208a01610e98565b80830190507f3c7465787420783d22323470782220793d2231323070782220666f6e742d73698152673d329e911899111f60c11b8060208301527f5669727475616c206261736520746f6b656e2072657365727665733a2000000060288301528651611241816045850160208b01610e98565b661e17ba32bc3a1f60c91b604593909101928301527f3c7465787420783d22323470782220793d2231343470782220666f6e742d7369604c830152606c8201527502b34b93a3ab0b61027232a103932b9b2b93b32b99d160551b607482015284516112b381608a840160208901610e98565b6113376110ac6113316113156112db608a86880101661e17ba32bc3a1f60c91b815260070190565b7f3c7465787420783d22323470782220793d2231363870782220666f6e742d73698152673d329e911899111f60c11b602082015260280190565b6f02332b2903930ba329014313839949d160851b815260100190565b87610f24565b98975050505050505050565b60006020828403121561135557600080fd5b5051919050565b6000845161136e818460208901610e98565b80830190507f3c7465787420783d22323470782220793d2231393270782220666f6e742d73698152673d329e911899111f60c11b8060208301526c027232a103130b630b731b29d1609d1b602883015285516113d1816035850160208a01610e98565b808301925050661e17ba32bc3a1f60c91b8060358401527f3c7465787420783d22323470782220793d2232313670782220666f6e742d7369603c84015281605c8401527302130b9b2903a37b5b2b7103130b630b731b29d160651b606484015285519150611446826078850160208901610e98565b60789290910191820152651e17b9bb339f60d11b607f82015260850195945050505050565b607b60f81b8152750113730b6b2911d1011283934bb30ba32902837b7b6160551b600182015283516000906114a7816017850160208901610e98565b61088b60f21b60179184019182018190527f226465736372697074696f6e223a2022436176696172207072697661746520706019830152721bdbdb08105353481c1bdcda5d1a5bdb8b888b606a1b60398301526801134b6b0b3b2911d160bd1b604c8301527f22646174613a696d6167652f7376672b786d6c3b6261736536342c000000000060558301528551611545816070850160208a01610e98565b6070920191820152611592611585611578611331607285016e2261747472696275746573223a205b60881b8152600f0190565b605d60f81b815260010190565b607d60f81b815260010190565b9695505050505050565b7f646174613a6170706c69636174696f6e2f6a736f6e3b6261736536342c0000008152600082516115d481601d850160208701610e98565b91909101601d0192915050565b600089516115f3818460208e01610e98565b8083019050600b60fa1b8082528a51611613816001850160208f01610e98565b600192019182018190528951611630816002850160208e01610e98565b60029201918201819052885161164d816003850160208d01610e98565b60039201918201819052875161166a816004850160208c01610e98565b600492019182015261169c61116061168961169681600586018b610f24565b600b60fa1b815260010190565b88610f24565b9b9a5050505050505050505050565b634e487b7160e01b600052604160045260246000fd5b634e487b7160e01b600052601160045260246000fd5b808201808211156109e8576109e86116c1565b60008261170757634e487b7160e01b600052601260045260246000fd5b500490565b80820281158282048414176109e8576109e86116c1565b703d90113a3930b4ba2fba3cb832911d101160791b81528251600090611750816011850160208801610e98565b61088b60f21b60119184019182015269113b30b63ab2911d101160b11b6013820152835161178581601d840160208801610e98565b6222207d60e81b601d9290910191820152602001949350505050565b634e487b7160e01b600052603260045260246000fd5b6000816117c6576117c66116c1565b50600019019056fe4142434445464748494a4b4c4d4e4f505152535455565758595a6162636465666768696a6b6c6d6e6f707172737475767778797a303132333435363738392b2fa2646970667358221220b214ea637cfac5f3676100c9a75894d8b544927a4933ae0f5c8afd3c6580426a64736f6c63430008130033",
    "linkReferences": {}
  },
  "methodIdentifiers": {
    "attributes(uint256)": "d05dcc6a",
    "svg(uint256)": "44b285db",
    "tokenURI(uint256)": "c87b56dd"
  },
  "id": 36
}