{
  "abi": [
    {
      "inputs": [
        {
          "internalType": "address",
          "name": "o",
          "type": "address"
        },
        {
          "internalType": "contract ERC20",
          "name": "c",
          "type": "address"
        },
        {
          "internalType": "contract ERC20",
          "name": "d",
          "type": "address"
        }
      ],
      "stateMutability": "nonpayable",
      "type": "constructor"
    },
    {
      "inputs": [],
      "name": "Deactivated",
      "type": "error"
    },
    {
      "inputs": [],
      "name": "Default",
      "type": "error"
    },
    {
      "inputs": [],
      "name": "NoDefault",
      "type": "error"
    },
    {
      "inputs": [],
      "name": "NotRollable",
      "type": "error"
    },
    {
      "inputs": [],
      "name": "OnlyApproved",
      "type": "error"
    },
    {
      "inputs": [
        {
          "internalType": "uint256",
          "name": "",
          "type": "uint256"
        }
      ],
      "name": "approvals",
      "outputs": [
        {
          "internalType": "address",
          "name": "",
          "type": "address"
        }
      ],
      "stateMutability": "view",
      "type": "function"
    },
    {
      "inputs": [
        {
          "internalType": "address",
          "name": "to",
          "type": "address"
        },
        {
          "internalType": "uint256",
          "name": "loanID",
          "type": "uint256"
        }
      ],
      "name": "approve",
      "outputs": [],
      "stateMutability": "nonpayable",
      "type": "function"
    },
    {
      "inputs": [
        {
          "internalType": "uint256",
          "name": "reqID",
          "type": "uint256"
        }
      ],
      "name": "clear",
      "outputs": [
        {
          "internalType": "uint256",
          "name": "loanID",
          "type": "uint256"
        }
      ],
      "stateMutability": "nonpayable",
      "type": "function"
    },
    {
      "inputs": [],
      "name": "collateral",
      "outputs": [
        {
          "internalType": "contract ERC20",
          "name": "",
          "type": "address"
        }
      ],
      "stateMutability": "view",
      "type": "function"
    },
    {
      "inputs": [
        {
          "internalType": "uint256",
          "name": "amount",
          "type": "uint256"
        },
        {
          "internalType": "uint256",
          "name": "loanToCollateral",
          "type": "uint256"
        }
      ],
      "name": "collateralFor",
      "outputs": [
        {
          "internalType": "uint256",
          "name": "",
          "type": "uint256"
        }
      ],
      "stateMutability": "pure",
      "type": "function"
    },
    {
      "inputs": [],
      "name": "debt",
      "outputs": [
        {
          "internalType": "contract ERC20",
          "name": "",
          "type": "address"
        }
      ],
      "stateMutability": "view",
      "type": "function"
    },
    {
      "inputs": [
        {
          "internalType": "uint256",
          "name": "loanID",
          "type": "uint256"
        }
      ],
      "name": "defaulted",
      "outputs": [
        {
          "internalType": "uint256",
          "name": "",
          "type": "uint256"
        }
      ],
      "stateMutability": "nonpayable",
      "type": "function"
    },
    {
      "inputs": [
        {
          "internalType": "address",
          "name": "to",
          "type": "address"
        }
      ],
      "name": "delegate",
      "outputs": [],
      "stateMutability": "nonpayable",
      "type": "function"
    },
    {
      "inputs": [
        {
          "internalType": "uint256",
          "name": "amount",
          "type": "uint256"
        },
        {
          "internalType": "uint256",
          "name": "rate",
          "type": "uint256"
        },
        {
          "internalType": "uint256",
          "name": "duration",
          "type": "uint256"
        }
      ],
      "name": "interestFor",
      "outputs": [
        {
          "internalType": "uint256",
          "name": "",
          "type": "uint256"
        }
      ],
      "stateMutability": "pure",
      "type": "function"
    },
    {
      "inputs": [
        {
          "internalType": "uint256",
          "name": "reqID",
          "type": "uint256"
        }
      ],
      "name": "isActive",
      "outputs": [
        {
          "internalType": "bool",
          "name": "",
          "type": "bool"
        }
      ],
      "stateMutability": "view",
      "type": "function"
    },
    {
      "inputs": [
        {
          "internalType": "uint256",
          "name": "loanID",
          "type": "uint256"
        }
      ],
      "name": "isDefaulted",
      "outputs": [
        {
          "internalType": "bool",
          "name": "",
          "type": "bool"
        }
      ],
      "stateMutability": "view",
      "type": "function"
    },
    {
      "inputs": [
        {
          "internalType": "uint256",
          "name": "",
          "type": "uint256"
        }
      ],
      "name": "loans",
      "outputs": [
        {
          "components": [
            {
              "internalType": "uint256",
              "name": "amount",
              "type": "uint256"
            },
            {
              "internalType": "uint256",
              "name": "interest",
              "type": "uint256"
            },
            {
              "internalType": "uint256",
              "name": "loanToCollateral",
              "type": "uint256"
            },
            {
              "internalType": "uint256",
              "name": "duration",
              "type": "uint256"
            },
            {
              "internalType": "bool",
              "name": "active",
              "type": "bool"
            }
          ],
          "internalType": "struct LenderAlwaysWins.Request",
          "name": "request",
          "type": "tuple"
        },
        {
          "internalType": "uint256",
          "name": "amount",
          "type": "uint256"
        },
        {
          "internalType": "uint256",
          "name": "collateral",
          "type": "uint256"
        },
        {
          "internalType": "uint256",
          "name": "expiry",
          "type": "uint256"
        },
        {
          "internalType": "bool",
          "name": "rollable",
          "type": "bool"
        },
        {
          "internalType": "address",
          "name": "lender",
          "type": "address"
        }
      ],
      "stateMutability": "view",
      "type": "function"
    },
    {
      "inputs": [
        {
          "internalType": "uint256",
          "name": "loanID",
          "type": "uint256"
        },
        {
          "internalType": "uint256",
          "name": "repaid",
          "type": "uint256"
        }
      ],
      "name": "repay",
      "outputs": [],
      "stateMutability": "nonpayable",
      "type": "function"
    },
    {
      "inputs": [
        {
          "internalType": "uint256",
          "name": "amount",
          "type": "uint256"
        },
        {
          "internalType": "uint256",
          "name": "interest",
          "type": "uint256"
        },
        {
          "internalType": "uint256",
          "name": "loanToCollateral",
          "type": "uint256"
        },
        {
          "internalType": "uint256",
          "name": "duration",
          "type": "uint256"
        }
      ],
      "name": "request",
      "outputs": [
        {
          "internalType": "uint256",
          "name": "reqID",
          "type": "uint256"
        }
      ],
      "stateMutability": "nonpayable",
      "type": "function"
    },
    {
      "inputs": [
        {
          "internalType": "uint256",
          "name": "",
          "type": "uint256"
        }
      ],
      "name": "requests",
      "outputs": [
        {
          "internalType": "uint256",
          "name": "amount",
          "type": "uint256"
        },
        {
          "internalType": "uint256",
          "name": "interest",
          "type": "uint256"
        },
        {
          "internalType": "uint256",
          "name": "loanToCollateral",
          "type": "uint256"
        },
        {
          "internalType": "uint256",
          "name": "duration",
          "type": "uint256"
        },
        {
          "internalType": "bool",
          "name": "active",
          "type": "bool"
        }
      ],
      "stateMutability": "view",
      "type": "function"
    },
    {
      "inputs": [
        {
          "internalType": "uint256",
          "name": "reqID",
          "type": "uint256"
        }
      ],
      "name": "rescind",
      "outputs": [],
      "stateMutability": "nonpayable",
      "type": "function"
    },
    {
      "inputs": [
        {
          "internalType": "uint256",
          "name": "loanID",
          "type": "uint256"
        }
      ],
      "name": "roll",
      "outputs": [],
      "stateMutability": "nonpayable",
      "type": "function"
    },
    {
      "inputs": [
        {
          "internalType": "uint256",
          "name": "loanID",
          "type": "uint256"
        }
      ],
      "name": "toggleRoll",
      "outputs": [
        {
          "internalType": "bool",
          "name": "",
          "type": "bool"
        }
      ],
      "stateMutability": "nonpayable",
      "type": "function"
    },
    {
      "inputs": [
        {
          "internalType": "uint256",
          "name": "loanID",
          "type": "uint256"
        }
      ],
      "name": "transfer",
      "outputs": [],
      "stateMutability": "nonpayable",
      "type": "function"
    }
  ],
  "bytecode": {
    "object": "0x60e06040523480156200001157600080fd5b50604051620017173803806200171783398101604081905262000034916200006b565b6001600160a01b0392831660805290821660a0521660c052620000bf565b6001600160a01b03811681146200006857600080fd5b50565b6000806000606084860312156200008157600080fd5b83516200008e8162000052565b6020850151909350620000a18162000052565b6040850151909250620000b48162000052565b809150509250925092565b60805160a05160c0516115d4620001436000396000818161014001528181610f2901526112020152600081816102ff015281816106a701528181610867015281816109fe01528181610cae0152818161107f01526112cb0152600081816109a101528181610f5901528181610fd8015281816110a8015261129c01526115d46000f3fe608060405234801561001057600080fd5b50600436106101215760003560e01c806381d12c58116100ad578063c0fe1af811610071578063c0fe1af8146102c1578063c54f70d4146102d4578063d8aed145146102e7578063d8dfeb45146102fa578063e1ec3c681461032157600080fd5b806381d12c581461023857806382afd23b1461027557806399c6b2ef146102885780639bcf40a21461029b578063a216bd47146102ae57600080fd5b80632f3ad61f116100f45780632f3ad61f146101a55780632fb400ed146101c857806348156b17146101e95780635c19a95c146101fc57806363035f661461020f57600080fd5b8063095ea7b3146101265780630dca59c11461013b57806312514bba1461017f5780631f7b4f3014610192575b600080fd5b6101396101343660046113e8565b61039f565b005b6101627f000000000000000000000000000000000000000000000000000000000000000081565b6040516001600160a01b0390911681526020015b60405180910390f35b61013961018d366004611412565b6104aa565b6101396101a0366004611412565b61054c565b6101b86101b3366004611412565b61072b565b6040519015158152602001610176565b6101db6101d636600461142b565b61075b565b604051908152602001610176565b6101b86101f7366004611412565b61090a565b61013961020a36600461145d565b610996565b61016261021d366004611412565b6002602052600090815260409020546001600160a01b031681565b61024b610246366004611412565b610a5d565b6040805195865260208601949094529284019190915260608301521515608082015260a001610176565b6101b8610283366004611412565b610aa1565b6101db610296366004611478565b610ad2565b6101db6102a936600461149a565b610afa565b6101db6102bc366004611412565b610b3e565b6101db6102cf366004611412565b610d43565b6101396102e2366004611412565b610fcd565b6101396102f5366004611478565b611145565b6101627f000000000000000000000000000000000000000000000000000000000000000081565b61033461032f366004611412565b611338565b60408051875181526020808901519082015287820151918101919091526060808801519082015260809687015115159681019690965260a086019490945260c085019290925260e084015215156101008301526001600160a01b031661012082015261014001610176565b6000600182815481106103b4576103b46114c6565b60009182526020918290206040805161016081018252600993909302909101805460c08401908152600182015460e08501526002820154610100808601919091526003830154610120860152600483015460ff9081161515610140870152918552600583015495850195909552600682015492840192909252600781015460608401526008015490811615156080830152919091046001600160a01b031660a08201819052909150331461047b576040516364759a3360e01b815260040160405180910390fd5b50600090815260026020526040902080546001600160a01b0319166001600160a01b0392909216919091179055565b6000818152600260205260409020546001600160a01b031633146104e1576040516364759a3360e01b815260040160405180910390fd5b600081815260026020526040902080546001600160a01b03191690556001805433919083908110610514576105146114c6565b906000526020600020906009020160080160016101000a8154816001600160a01b0302191690836001600160a01b0316021790555050565b600060018281548110610561576105616114c6565b60009182526020918290206040805160a08101825260099093029091018054835260018101549383019390935260028301549082015260038201546060820152600482015460ff16151560808201526007820154919250904211156105d95760405163064e30f160e51b815260040160405180910390fd5b600882015460ff166105fe57604051633187745760e11b815260040160405180910390fd5b6000826006015461061784600501548460400151610ad2565b61062191906114f2565b9050600061063c846005015484602001518560600151610afa565b9050808460050160008282546106529190611505565b90915550506060830151600785018054600090610670908490611505565b925050819055508184600601600082825461068b9190611505565b90915550506040516323b872dd60e01b81526001600160a01b037f000000000000000000000000000000000000000000000000000000000000000016906323b872dd906106e090339030908790600401611518565b6020604051808303816000875af11580156106ff573d6000803e3d6000fd5b505050506040513d601f19601f82011682018060405250810190610723919061153c565b505050505050565b600060018281548110610740576107406114c6565b90600052602060002090600902016007015442119050919050565b600080546040805160a0810182528781526020810187815291810186815260608201868152600160808401818152908601875595805291517f290decd9548b62a8d60345a988386fc84ba6bc95484008f6362f93160ef3e563600586029081019190915592517f290decd9548b62a8d60345a988386fc84ba6bc95484008f6362f93160ef3e564840155517f290decd9548b62a8d60345a988386fc84ba6bc95484008f6362f93160ef3e565830155517f290decd9548b62a8d60345a988386fc84ba6bc95484008f6362f93160ef3e56682015591517f290decd9548b62a8d60345a988386fc84ba6bc95484008f6362f93160ef3e567909201805460ff1916921515929092179091557f00000000000000000000000000000000000000000000000000000000000000006001600160a01b03166323b872dd33306108a08988610ad2565b6040518463ffffffff1660e01b81526004016108be93929190611518565b6020604051808303816000875af11580156108dd573d6000803e3d6000fd5b505050506040513d601f19601f82011682018060405250810190610901919061153c565b50949350505050565b60008060018381548110610920576109206114c6565b906000526020600020906009020190508060080160019054906101000a90046001600160a01b03166001600160a01b0316336001600160a01b031614610979576040516364759a3360e01b815260040160405180910390fd5b600801805460ff19811660ff918216159081179092551692915050565b336001600160a01b037f000000000000000000000000000000000000000000000000000000000000000016146109df576040516364759a3360e01b815260040160405180910390fd5b6040516317066a5760e21b81526001600160a01b0382811660048301527f00000000000000000000000000000000000000000000000000000000000000001690635c19a95c90602401600060405180830381600087803b158015610a4257600080fd5b505af1158015610a56573d6000803e3d6000fd5b5050505050565b60008181548110610a6d57600080fd5b6000918252602090912060059091020180546001820154600283015460038401546004909401549294509092909160ff1685565b6000808281548110610ab557610ab56114c6565b600091825260209091206004600590920201015460ff1692915050565b600081610ae7670de0b6b3a764000085611565565b610af1919061157c565b90505b92915050565b6000806301e13380610b0c8486611565565b610b16919061157c565b9050670de0b6b3a7640000610b2b8287611565565b610b35919061157c565b95945050505050565b60008060018381548110610b5457610b546114c6565b60009182526020918290206040805161016081018252600993909302909101805460c0840190815260018083015460e08601526002830154610100808701919091526003840154610120870152600484015460ff90811615156101408801529286526005840154968601969096526006830154938501939093526007820154606085015260089091015490811615156080840152929092046001600160a01b031660a0820152815490925084908110610c0f57610c0f6114c6565b60009182526020822060099091020181815560018101829055600281018290556003810182905560048101805460ff191690556005810182905560068101829055600781019190915560080180546001600160a81b031916905560608101514211610c8d5760405163e6ce835f60e01b815260040160405180910390fd5b60a0810151604080830151905163a9059cbb60e01b81526001600160a01b037f0000000000000000000000000000000000000000000000000000000000000000169263a9059cbb92610cf5926004016001600160a01b03929092168252602082015260400190565b6020604051808303816000875af1158015610d14573d6000803e3d6000fd5b505050506040513d601f19601f82011682018060405250810190610d38919061153c565b506040015192915050565b60008060008381548110610d5957610d596114c6565b60009182526020909120600590910201600481015490915060ff16610d9157604051630450a9a360e21b815260040160405180910390fd5b60048101805460ff191690556000610db6826000015483600101548460030154610afa565b90506000610dcc83600001548460020154610ad2565b90506000836003015442610de09190611505565b60018054604080516101608101909152875460c082018181528985015460e084015260028a015461010084015260038a015461012084015260048a015460ff16151561014084015282529198509293509091906020820190610e43908790611505565b8152602080820186905260408083018690526001606080850182905233608095860181905287548084018955600098895297859020875180516009909a029091019889558086015193890193909355828401516002890155828201516003890155918501516004808901805460ff1916921515929092179091559386015160058801558583015160068801558501516007870155928401516008909501805460a0909501516001600160a81b0319909516951515610100600160a81b031916959095176101006001600160a01b039586160217909455875493516323b872dd60e01b81527f0000000000000000000000000000000000000000000000000000000000000000909316936323b872dd93610f8093927f0000000000000000000000000000000000000000000000000000000000000000929101611518565b6020604051808303816000875af1158015610f9f573d6000803e3d6000fd5b505050506040513d601f19601f82011682018060405250810190610fc3919061153c565b5050505050919050565b336001600160a01b037f00000000000000000000000000000000000000000000000000000000000000001614611016576040516364759a3360e01b815260040160405180910390fd5b600080828154811061102a5761102a6114c6565b60009182526020909120600590910201600481015490915060ff1661106257604051630450a9a360e21b815260040160405180910390fd5b60048101805460ff19169055805460028201546001600160a01b037f0000000000000000000000000000000000000000000000000000000000000000169163a9059cbb917f0000000000000000000000000000000000000000000000000000000000000000916110d191610ad2565b6040516001600160e01b031960e085901b1681526001600160a01b03909216600483015260248201526044016020604051808303816000875af115801561111c573d6000803e3d6000fd5b505050506040513d601f19601f82011682018060405250810190611140919061153c565b505050565b60006001838154811061115a5761115a6114c6565b90600052602060002090600902019050806007015442111561118f5760405163064e30f160e51b815260040160405180910390fd5b600081600501548383600601546111a69190611565565b6111b0919061157c565b9050828260050160008282546111c691906114f2565b92505081905550808260060160008282546111e191906114f2565b909155505060088201546040516323b872dd60e01b81526001600160a01b037f00000000000000000000000000000000000000000000000000000000000000008116926323b872dd92611241923392610100900416908890600401611518565b6020604051808303816000875af1158015611260573d6000803e3d6000fd5b505050506040513d601f19601f82011682018060405250810190611284919061153c565b5060405163a9059cbb60e01b81526001600160a01b037f000000000000000000000000000000000000000000000000000000000000000081166004830152602482018390527f0000000000000000000000000000000000000000000000000000000000000000169063a9059cbb906044016020604051808303816000875af1158015611314573d6000803e3d6000fd5b505050506040513d601f19601f82011682018060405250810190610a56919061153c565b6001818154811061134857600080fd5b60009182526020918290206040805160a08101825260099093029091018054835260018101549383019390935260028301549082015260038201546060820152600482015460ff908116151560808301526005830154600684015460078501546008909501549395509093909290918116906001600160a01b036101009091041686565b80356001600160a01b03811681146113e357600080fd5b919050565b600080604083850312156113fb57600080fd5b611404836113cc565b946020939093013593505050565b60006020828403121561142457600080fd5b5035919050565b6000806000806080858703121561144157600080fd5b5050823594602084013594506040840135936060013592509050565b60006020828403121561146f57600080fd5b610af1826113cc565b6000806040838503121561148b57600080fd5b50508035926020909101359150565b6000806000606084860312156114af57600080fd5b505081359360208301359350604090920135919050565b634e487b7160e01b600052603260045260246000fd5b634e487b7160e01b600052601160045260246000fd5b81810381811115610af457610af46114dc565b80820180821115610af457610af46114dc565b6001600160a01b039384168152919092166020820152604081019190915260600190565b60006020828403121561154e57600080fd5b8151801515811461155e57600080fd5b9392505050565b8082028115828204841417610af457610af46114dc565b60008261159957634e487b7160e01b600052601260045260246000fd5b50049056fea2646970667358221220c189edeaa5a06a9f13d1d647a0199854012ce5e5377bbf181fcae86b61db079c64736f6c63430008130033",
    "linkReferences": {}
  },
  "methodIdentifiers": {
    "approvals(uint256)": "63035f66",
    "approve(address,uint256)": "095ea7b3",
    "clear(uint256)": "c0fe1af8",
    "collateral()": "d8dfeb45",
    "collateralFor(uint256,uint256)": "99c6b2ef",
    "debt()": "0dca59c1",
    "defaulted(uint256)": "a216bd47",
    "delegate(address)": "5c19a95c",
    "interestFor(uint256,uint256,uint256)": "9bcf40a2",
    "isActive(uint256)": "82afd23b",
    "isDefaulted(uint256)": "2f3ad61f",
    "loans(uint256)": "e1ec3c68",
    "repay(uint256,uint256)": "d8aed145",
    "request(uint256,uint256,uint256,uint256)": "2fb400ed",
    "requests(uint256)": "81d12c58",
    "rescind(uint256)": "c54f70d4",
    "roll(uint256)": "1f7b4f30",
    "toggleRoll(uint256)": "48156b17",
    "transfer(uint256)": "12514bba"
  },
  "id": 44
}