{
  "abi": [
    {
      "inputs": [],
      "stateMutability": "nonpayable",
      "type": "constructor"
    },
    {
      "inputs": [],
      "name": "InvalidEthAmount",
      "type": "error"
    },
    {
      "anonymous": false,
      "inputs": [
        {
          "indexed": true,
          "internalType": "address",
          "name": "owner",
          "type": "address"
        },
        {
          "indexed": true,
          "internalType": "address",
          "name": "spender",
          "type": "address"
        },
        {
          "indexed": true,
          "internalType": "uint256",
          "name": "id",
          "type": "uint256"
        }
      ],
      "name": "Approval",
      "type": "event"
    },
    {
      "anonymous": false,
      "inputs": [
        {
          "indexed": true,
          "internalType": "address",
          "name": "owner",
          "type": "address"
        },
        {
          "indexed": true,
          "internalType": "address",
          "name": "operator",
          "type": "address"
        },
        {
          "indexed": false,
          "internalType": "bool",
          "name": "approved",
          "type": "bool"
        }
      ],
      "name": "ApprovalForAll",
      "type": "event"
    },
    {
      "anonymous": false,
      "inputs": [
        {
          "indexed": true,
          "internalType": "address",
          "name": "privatePool",
          "type": "address"
        },
        {
          "indexed": false,
          "internalType": "uint256[]",
          "name": "tokenIds",
          "type": "uint256[]"
        },
        {
          "indexed": false,
          "internalType": "uint256",
          "name": "baseTokenAmount",
          "type": "uint256"
        }
      ],
      "name": "Create",
      "type": "event"
    },
    {
      "anonymous": false,
      "inputs": [
        {
          "indexed": true,
          "internalType": "address",
          "name": "user",
          "type": "address"
        },
        {
          "indexed": true,
          "internalType": "address",
          "name": "newOwner",
          "type": "address"
        }
      ],
      "name": "OwnershipTransferred",
      "type": "event"
    },
    {
      "anonymous": false,
      "inputs": [
        {
          "indexed": true,
          "internalType": "address",
          "name": "from",
          "type": "address"
        },
        {
          "indexed": true,
          "internalType": "address",
          "name": "to",
          "type": "address"
        },
        {
          "indexed": true,
          "internalType": "uint256",
          "name": "id",
          "type": "uint256"
        }
      ],
      "name": "Transfer",
      "type": "event"
    },
    {
      "anonymous": false,
      "inputs": [
        {
          "indexed": true,
          "internalType": "address",
          "name": "token",
          "type": "address"
        },
        {
          "indexed": true,
          "internalType": "uint256",
          "name": "amount",
          "type": "uint256"
        }
      ],
      "name": "Withdraw",
      "type": "event"
    },
    {
      "inputs": [
        {
          "internalType": "address",
          "name": "spender",
          "type": "address"
        },
        {
          "internalType": "uint256",
          "name": "id",
          "type": "uint256"
        }
      ],
      "name": "approve",
      "outputs": [],
      "stateMutability": "nonpayable",
      "type": "function"
    },
    {
      "inputs": [
        {
          "internalType": "address",
          "name": "owner",
          "type": "address"
        }
      ],
      "name": "balanceOf",
      "outputs": [
        {
          "internalType": "uint256",
          "name": "",
          "type": "uint256"
        }
      ],
      "stateMutability": "view",
      "type": "function"
    },
    {
      "inputs": [
        {
          "internalType": "address",
          "name": "_baseToken",
          "type": "address"
        },
        {
          "internalType": "address",
          "name": "_nft",
          "type": "address"
        },
        {
          "internalType": "uint128",
          "name": "_virtualBaseTokenReserves",
          "type": "uint128"
        },
        {
          "internalType": "uint128",
          "name": "_virtualNftReserves",
          "type": "uint128"
        },
        {
          "internalType": "uint56",
          "name": "_changeFee",
          "type": "uint56"
        },
        {
          "internalType": "uint16",
          "name": "_feeRate",
          "type": "uint16"
        },
        {
          "internalType": "bytes32",
          "name": "_merkleRoot",
          "type": "bytes32"
        },
        {
          "internalType": "bool",
          "name": "_useStolenNftOracle",
          "type": "bool"
        },
        {
          "internalType": "bool",
          "name": "_payRoyalties",
          "type": "bool"
        },
        {
          "internalType": "bytes32",
          "name": "_salt",
          "type": "bytes32"
        },
        {
          "internalType": "uint256[]",
          "name": "tokenIds",
          "type": "uint256[]"
        },
        {
          "internalType": "uint256",
          "name": "baseTokenAmount",
          "type": "uint256"
        }
      ],
      "name": "create",
      "outputs": [
        {
          "internalType": "contract PrivatePool",
          "name": "privatePool",
          "type": "address"
        }
      ],
      "stateMutability": "payable",
      "type": "function"
    },
    {
      "inputs": [
        {
          "internalType": "uint256",
          "name": "",
          "type": "uint256"
        }
      ],
      "name": "getApproved",
      "outputs": [
        {
          "internalType": "address",
          "name": "",
          "type": "address"
        }
      ],
      "stateMutability": "view",
      "type": "function"
    },
    {
      "inputs": [
        {
          "internalType": "address",
          "name": "",
          "type": "address"
        },
        {
          "internalType": "address",
          "name": "",
          "type": "address"
        }
      ],
      "name": "isApprovedForAll",
      "outputs": [
        {
          "internalType": "bool",
          "name": "",
          "type": "bool"
        }
      ],
      "stateMutability": "view",
      "type": "function"
    },
    {
      "inputs": [],
      "name": "name",
      "outputs": [
        {
          "internalType": "string",
          "name": "",
          "type": "string"
        }
      ],
      "stateMutability": "view",
      "type": "function"
    },
    {
      "inputs": [],
      "name": "owner",
      "outputs": [
        {
          "internalType": "address",
          "name": "",
          "type": "address"
        }
      ],
      "stateMutability": "view",
      "type": "function"
    },
    {
      "inputs": [
        {
          "internalType": "uint256",
          "name": "id",
          "type": "uint256"
        }
      ],
      "name": "ownerOf",
      "outputs": [
        {
          "internalType": "address",
          "name": "owner",
          "type": "address"
        }
      ],
      "stateMutability": "view",
      "type": "function"
    },
    {
      "inputs": [
        {
          "internalType": "bytes32",
          "name": "salt",
          "type": "bytes32"
        }
      ],
      "name": "predictPoolDeploymentAddress",
      "outputs": [
        {
          "internalType": "address",
          "name": "predictedAddress",
          "type": "address"
        }
      ],
      "stateMutability": "view",
      "type": "function"
    },
    {
      "inputs": [],
      "name": "privatePoolImplementation",
      "outputs": [
        {
          "internalType": "address",
          "name": "",
          "type": "address"
        }
      ],
      "stateMutability": "view",
      "type": "function"
    },
    {
      "inputs": [],
      "name": "privatePoolMetadata",
      "outputs": [
        {
          "internalType": "address",
          "name": "",
          "type": "address"
        }
      ],
      "stateMutability": "view",
      "type": "function"
    },
    {
      "inputs": [],
      "name": "protocolFeeRate",
      "outputs": [
        {
          "internalType": "uint16",
          "name": "",
          "type": "uint16"
        }
      ],
      "stateMutability": "view",
      "type": "function"
    },
    {
      "inputs": [
        {
          "internalType": "address",
          "name": "from",
          "type": "address"
        },
        {
          "internalType": "address",
          "name": "to",
          "type": "address"
        },
        {
          "internalType": "uint256",
          "name": "id",
          "type": "uint256"
        }
      ],
      "name": "safeTransferFrom",
      "outputs": [],
      "stateMutability": "nonpayable",
      "type": "function"
    },
    {
      "inputs": [
        {
          "internalType": "address",
          "name": "from",
          "type": "address"
        },
        {
          "internalType": "address",
          "name": "to",
          "type": "address"
        },
        {
          "internalType": "uint256",
          "name": "id",
          "type": "uint256"
        },
        {
          "internalType": "bytes",
          "name": "data",
          "type": "bytes"
        }
      ],
      "name": "safeTransferFrom",
      "outputs": [],
      "stateMutability": "nonpayable",
      "type": "function"
    },
    {
      "inputs": [
        {
          "internalType": "address",
          "name": "operator",
          "type": "address"
        },
        {
          "internalType": "bool",
          "name": "approved",
          "type": "bool"
        }
      ],
      "name": "setApprovalForAll",
      "outputs": [],
      "stateMutability": "nonpayable",
      "type": "function"
    },
    {
      "inputs": [
        {
          "internalType": "address",
          "name": "_privatePoolImplementation",
          "type": "address"
        }
      ],
      "name": "setPrivatePoolImplementation",
      "outputs": [],
      "stateMutability": "nonpayable",
      "type": "function"
    },
    {
      "inputs": [
        {
          "internalType": "address",
          "name": "_privatePoolMetadata",
          "type": "address"
        }
      ],
      "name": "setPrivatePoolMetadata",
      "outputs": [],
      "stateMutability": "nonpayable",
      "type": "function"
    },
    {
      "inputs": [
        {
          "internalType": "uint16",
          "name": "_protocolFeeRate",
          "type": "uint16"
        }
      ],
      "name": "setProtocolFeeRate",
      "outputs": [],
      "stateMutability": "nonpayable",
      "type": "function"
    },
    {
      "inputs": [
        {
          "internalType": "bytes4",
          "name": "interfaceId",
          "type": "bytes4"
        }
      ],
      "name": "supportsInterface",
      "outputs": [
        {
          "internalType": "bool",
          "name": "",
          "type": "bool"
        }
      ],
      "stateMutability": "view",
      "type": "function"
    },
    {
      "inputs": [],
      "name": "symbol",
      "outputs": [
        {
          "internalType": "string",
          "name": "",
          "type": "string"
        }
      ],
      "stateMutability": "view",
      "type": "function"
    },
    {
      "inputs": [
        {
          "internalType": "uint256",
          "name": "id",
          "type": "uint256"
        }
      ],
      "name": "tokenURI",
      "outputs": [
        {
          "internalType": "string",
          "name": "",
          "type": "string"
        }
      ],
      "stateMutability": "view",
      "type": "function"
    },
    {
      "inputs": [
        {
          "internalType": "address",
          "name": "from",
          "type": "address"
        },
        {
          "internalType": "address",
          "name": "to",
          "type": "address"
        },
        {
          "internalType": "uint256",
          "name": "id",
          "type": "uint256"
        }
      ],
      "name": "transferFrom",
      "outputs": [],
      "stateMutability": "nonpayable",
      "type": "function"
    },
    {
      "inputs": [
        {
          "internalType": "address",
          "name": "newOwner",
          "type": "address"
        }
      ],
      "name": "transferOwnership",
      "outputs": [],
      "stateMutability": "nonpayable",
      "type": "function"
    },
    {
      "inputs": [
        {
          "internalType": "address",
          "name": "token",
          "type": "address"
        },
        {
          "internalType": "uint256",
          "name": "amount",
          "type": "uint256"
        }
      ],
      "name": "withdraw",
      "outputs": [],
      "stateMutability": "nonpayable",
      "type": "function"
    },
    {
      "stateMutability": "payable",
      "type": "receive"
    }
  ],
  "bytecode": {
    "object": "0x60806040523480156200001157600080fd5b50336040518060400160405280601481526020017f436176696172205072697661746520506f6f6c73000000000000000000000000815250604051806040016040528060048152602001631413d3d360e21b815250816000908162000077919062000180565b50600162000086828262000180565b5050600680546001600160a01b0319166001600160a01b0384169081179091556040519091506000907f8be0079c531659141344cd1fd0a4f28419497f9722a3daafe3b4186f6b6457e0908290a3506200024c565b634e487b7160e01b600052604160045260246000fd5b600181811c908216806200010657607f821691505b6020821081036200012757634e487b7160e01b600052602260045260246000fd5b50919050565b601f8211156200017b57600081815260208120601f850160051c81016020861015620001565750805b601f850160051c820191505b81811015620001775782815560010162000162565b5050505b505050565b81516001600160401b038111156200019c576200019c620000db565b620001b481620001ad8454620000f1565b846200012d565b602080601f831160018114620001ec5760008415620001d35750858301515b600019600386901b1c1916600185901b17855562000177565b600085815260208120601f198616915b828110156200021d57888601518255948401946001909101908401620001fc565b50858210156200023c5787850151600019600388901b60f8161c191681555b5050505050600190811b01905550565b611aa0806200025c6000396000f3fe60806040526004361061014f5760003560e01c80638325cdcc116100b6578063b88d4fde1161006f578063b88d4fde146103ed578063c87b56dd1461040d578063d82996fe1461042d578063e985e9c51461044d578063f2fde38b14610488578063f3fef3a3146104a857600080fd5b80638325cdcc146103385780638da5cb5b1461035857806395d89b41146103785780639c75017b1461038d578063a22cb465146103ad578063a4680a3a146103cd57600080fd5b80632e551c35116101085780632e551c35146102625780633f8911891461028257806342842e0e1461029557806358f85880146102b55780636352211e146102ea57806370a082311461030a57600080fd5b806301ffc9a71461015b57806306fdde0314610190578063081812fc146101b2578063095ea7b31461020057806316b0274a1461022257806323b872dd1461024257600080fd5b3661015657005b600080fd5b34801561016757600080fd5b5061017b6101763660046113e8565b6104c8565b60405190151581526020015b60405180910390f35b34801561019c57600080fd5b506101a561051a565b6040516101879190611430565b3480156101be57600080fd5b506101e86101cd366004611463565b6004602052600090815260409020546001600160a01b031681565b6040516001600160a01b039091168152602001610187565b34801561020c57600080fd5b5061022061021b366004611493565b6105a8565b005b34801561022e57600080fd5b506101e861023d366004611463565b61068f565b34801561024e57600080fd5b5061022061025d3660046114bd565b6106a9565b34801561026e57600080fd5b5061022061027d36600461150b565b610870565b6101e8610290366004611634565b6108bc565b3480156102a157600080fd5b506102206102b03660046114bd565b610b92565b3480156102c157600080fd5b506008546102d790600160a01b900461ffff1681565b60405161ffff9091168152602001610187565b3480156102f657600080fd5b506101e8610305366004611463565b610c67565b34801561031657600080fd5b5061032a610325366004611719565b610cbe565b604051908152602001610187565b34801561034457600080fd5b50610220610353366004611719565b610d21565b34801561036457600080fd5b506006546101e8906001600160a01b031681565b34801561038457600080fd5b506101a5610d6d565b34801561039957600080fd5b506008546101e8906001600160a01b031681565b3480156103b957600080fd5b506102206103c8366004611734565b610d7a565b3480156103d957600080fd5b506102206103e8366004611719565b610de6565b3480156103f957600080fd5b5061022061040836600461176b565b610e32565b34801561041957600080fd5b506101a5610428366004611463565b610ef7565b34801561043957600080fd5b506007546101e8906001600160a01b031681565b34801561045957600080fd5b5061017b610468366004611806565b600560209081526000928352604080842090915290825290205460ff1681565b34801561049457600080fd5b506102206104a3366004611719565b610f69565b3480156104b457600080fd5b506102206104c3366004611493565b610fdf565b60006301ffc9a760e01b6001600160e01b0319831614806104f957506380ac58cd60e01b6001600160e01b03198316145b806105145750635b5e139f60e01b6001600160e01b03198316145b92915050565b6000805461052790611839565b80601f016020809104026020016040519081016040528092919081815260200182805461055390611839565b80156105a05780601f10610575576101008083540402835291602001916105a0565b820191906000526020600020905b81548152906001019060200180831161058357829003601f168201915b505050505081565b6000818152600260205260409020546001600160a01b0316338114806105f157506001600160a01b038116600090815260056020908152604080832033845290915290205460ff165b6106335760405162461bcd60e51b815260206004820152600e60248201526d1393d517d055551213d49256915160921b60448201526064015b60405180910390fd5b60008281526004602052604080822080546001600160a01b0319166001600160a01b0387811691821790925591518593918516917f8c5be1e5ebec7d5bd14f71427d1e84f3dd0314c0f7b2291e5b200ac8c7c3b92591a4505050565b600754600090610514906001600160a01b031683306110d3565b6000818152600260205260409020546001600160a01b038481169116146106ff5760405162461bcd60e51b815260206004820152600a60248201526957524f4e475f46524f4d60b01b604482015260640161062a565b6001600160a01b0382166107495760405162461bcd60e51b81526020600482015260116024820152701253959053125117d49150d25412515395607a1b604482015260640161062a565b336001600160a01b038416148061078357506001600160a01b038316600090815260056020908152604080832033845290915290205460ff165b806107a457506000818152600460205260409020546001600160a01b031633145b6107e15760405162461bcd60e51b815260206004820152600e60248201526d1393d517d055551213d49256915160921b604482015260640161062a565b6001600160a01b0380841660008181526003602090815260408083208054600019019055938616808352848320805460010190558583526002825284832080546001600160a01b03199081168317909155600490925284832080549092169091559251849392917fddf252ad1be2c89b69c2b068fc378daa952ba7f163c4a11628f55a4df523b3ef91a4505050565b6006546001600160a01b0316331461089a5760405162461bcd60e51b815260040161062a90611873565b6008805461ffff909216600160a01b0261ffff60a01b19909216919091179055565b60006001600160a01b038d161580156108d55750813414155b806108f357506001600160a01b038d16158015906108f35750600034115b1561091157604051630772327b60e01b815260040160405180910390fd5b600754610927906001600160a01b031685611130565b905061093c33826001600160a01b0316611181565b604051633e2fe0f560e11b81526001600160a01b038e811660048301528d811660248301526001600160801b03808e1660448401528c16606483015266ffffffffffffff8b16608483015261ffff8a1660a483015260c4820189905287151560e4830152861515610104830152821690637c5fc1ea9061012401600060405180830381600087803b1580156109d057600080fd5b505af11580156109e4573d6000803e3d6000fd5b5050506001600160a01b038e169050610a0f57610a0a6001600160a01b03821683611251565b610a8a565b6040516323b872dd60e01b81523360048201526001600160a01b038281166024830152604482018490528e16906323b872dd906064016020604051808303816000875af1158015610a64573d6000803e3d6000fd5b505050506040513d601f19601f82011682018060405250810190610a889190611899565b505b60005b8351811015610b3e578c6001600160a01b03166342842e0e3384878581518110610ab957610ab96118b6565b60209081029190910101516040516001600160e01b031960e086901b1681526001600160a01b0393841660048201529290911660248301526044820152606401600060405180830381600087803b158015610b1357600080fd5b505af1158015610b27573d6000803e3d6000fd5b505050508080610b36906118cc565b915050610a8d565b50806001600160a01b03167f2e8b0eeead8b24c71386db9f08f074489fc7ceed52e7ee8a3ad4ab50b9c8c4f48484604051610b7a9291906118f3565b60405180910390a29c9b505050505050505050505050565b610b9d8383836106a9565b6001600160a01b0382163b1580610c465750604051630a85bd0160e11b8082523360048301526001600160a01b03858116602484015260448301849052608060648401526000608484015290919084169063150b7a029060a4016020604051808303816000875af1158015610c16573d6000803e3d6000fd5b505050506040513d601f19601f82011682018060405250810190610c3a919061193b565b6001600160e01b031916145b610c625760405162461bcd60e51b815260040161062a90611958565b505050565b6000818152600260205260409020546001600160a01b031680610cb95760405162461bcd60e51b815260206004820152600a6024820152691393d517d3525395115160b21b604482015260640161062a565b919050565b60006001600160a01b038216610d055760405162461bcd60e51b815260206004820152600c60248201526b5a45524f5f4144445245535360a01b604482015260640161062a565b506001600160a01b031660009081526003602052604090205490565b6006546001600160a01b03163314610d4b5760405162461bcd60e51b815260040161062a90611873565b600880546001600160a01b0319166001600160a01b0392909216919091179055565b6001805461052790611839565b3360008181526005602090815260408083206001600160a01b03871680855290835292819020805460ff191686151590811790915590519081529192917f17307eab39ab6107e8899845ad3d59bd9653f200f220920489ca2b5937696c31910160405180910390a35050565b6006546001600160a01b03163314610e105760405162461bcd60e51b815260040161062a90611873565b600780546001600160a01b0319166001600160a01b0392909216919091179055565b610e3d8585856106a9565b6001600160a01b0384163b1580610ed45750604051630a85bd0160e11b808252906001600160a01b0386169063150b7a0290610e859033908a90899089908990600401611982565b6020604051808303816000875af1158015610ea4573d6000803e3d6000fd5b505050506040513d601f19601f82011682018060405250810190610ec8919061193b565b6001600160e01b031916145b610ef05760405162461bcd60e51b815260040161062a90611958565b5050505050565b60085460405163c87b56dd60e01b8152600481018390526060916001600160a01b03169063c87b56dd90602401600060405180830381865afa158015610f41573d6000803e3d6000fd5b505050506040513d6000823e601f3d908101601f1916820160405261051491908101906119d6565b6006546001600160a01b03163314610f935760405162461bcd60e51b815260040161062a90611873565b600680546001600160a01b0319166001600160a01b03831690811790915560405133907f8be0079c531659141344cd1fd0a4f28419497f9722a3daafe3b4186f6b6457e090600090a350565b6006546001600160a01b031633146110095760405162461bcd60e51b815260040161062a90611873565b6001600160a01b038216611026576110213382611251565b611099565b60405163a9059cbb60e01b8152336004820152602481018290526001600160a01b0383169063a9059cbb906044016020604051808303816000875af1158015611073573d6000803e3d6000fd5b505050506040513d601f19601f820116820180604052508101906110979190611899565b505b60405181906001600160a01b038416907f884edad9ce6fa2440d8a54cc123490eb96d2768479d49ff9c7366125a942436490600090a35050565b60008061111a8560006c5af43d3d93803e602a57fd5bf36021528160145273602c3d8160093d39f33d3d3d3d363d3d37363d736000526035600c2090506000602152919050565b90506111278185856112a2565b95945050505050565b60006c5af43d3d93803e602a57fd5bf36021528260145273602c3d8160093d39f33d3d3d3d363d3d37363d73600052816035600c6000f590506000602152806105145763301164256000526004601cfd5b61118b82826112c4565b6001600160a01b0382163b15806112315750604051630a85bd0160e11b80825233600483015260006024830181905260448301849052608060648401526084830152906001600160a01b0384169063150b7a029060a4016020604051808303816000875af1158015611201573d6000803e3d6000fd5b505050506040513d601f19601f82011682018060405250810190611225919061193b565b6001600160e01b031916145b61124d5760405162461bcd60e51b815260040161062a90611958565b5050565b600080600080600085875af1905080610c625760405162461bcd60e51b815260206004820152601360248201527211551217d514905394d1915497d19052531151606a1b604482015260640161062a565b600060ff60005350603592835260601b60015260155260556000908120915290565b6001600160a01b03821661130e5760405162461bcd60e51b81526020600482015260116024820152701253959053125117d49150d25412515395607a1b604482015260640161062a565b6000818152600260205260409020546001600160a01b0316156113645760405162461bcd60e51b815260206004820152600e60248201526d1053149150511657d3525395115160921b604482015260640161062a565b6001600160a01b038216600081815260036020908152604080832080546001019055848352600290915280822080546001600160a01b0319168417905551839291907fddf252ad1be2c89b69c2b068fc378daa952ba7f163c4a11628f55a4df523b3ef908290a45050565b6001600160e01b0319811681146113e557600080fd5b50565b6000602082840312156113fa57600080fd5b8135611405816113cf565b9392505050565b60005b8381101561142757818101518382015260200161140f565b50506000910152565b602081526000825180602084015261144f81604085016020870161140c565b601f01601f19169190910160400192915050565b60006020828403121561147557600080fd5b5035919050565b80356001600160a01b0381168114610cb957600080fd5b600080604083850312156114a657600080fd5b6114af8361147c565b946020939093013593505050565b6000806000606084860312156114d257600080fd5b6114db8461147c565b92506114e96020850161147c565b9150604084013590509250925092565b803561ffff81168114610cb957600080fd5b60006020828403121561151d57600080fd5b611405826114f9565b80356001600160801b0381168114610cb957600080fd5b803566ffffffffffffff81168114610cb957600080fd5b80151581146113e557600080fd5b8035610cb981611554565b634e487b7160e01b600052604160045260246000fd5b604051601f8201601f1916810167ffffffffffffffff811182821017156115ac576115ac61156d565b604052919050565b600082601f8301126115c557600080fd5b8135602067ffffffffffffffff8211156115e1576115e161156d565b8160051b6115f0828201611583565b928352848101820192828101908785111561160a57600080fd5b83870192505b8483101561162957823582529183019190830190611610565b979650505050505050565b6000806000806000806000806000806000806101808d8f03121561165757600080fd5b6116608d61147c565b9b5061166e60208e0161147c565b9a5061167c60408e01611526565b995061168a60608e01611526565b985061169860808e0161153d565b97506116a660a08e016114f9565b965060c08d013595506116bb60e08e01611562565b94506116ca6101008e01611562565b93506101208d0135925067ffffffffffffffff6101408e013511156116ee57600080fd5b6116ff8e6101408f01358f016115b4565b91506101608d013590509295989b509295989b509295989b565b60006020828403121561172b57600080fd5b6114058261147c565b6000806040838503121561174757600080fd5b6117508361147c565b9150602083013561176081611554565b809150509250929050565b60008060008060006080868803121561178357600080fd5b61178c8661147c565b945061179a6020870161147c565b935060408601359250606086013567ffffffffffffffff808211156117be57600080fd5b818801915088601f8301126117d257600080fd5b8135818111156117e157600080fd5b8960208285010111156117f357600080fd5b9699959850939650602001949392505050565b6000806040838503121561181957600080fd5b6118228361147c565b91506118306020840161147c565b90509250929050565b600181811c9082168061184d57607f821691505b60208210810361186d57634e487b7160e01b600052602260045260246000fd5b50919050565b6020808252600c908201526b15539055551213d49256915160a21b604082015260600190565b6000602082840312156118ab57600080fd5b815161140581611554565b634e487b7160e01b600052603260045260246000fd5b6000600182016118ec57634e487b7160e01b600052601160045260246000fd5b5060010190565b604080825283519082018190526000906020906060840190828701845b8281101561192c57815184529284019290840190600101611910565b50505092019290925292915050565b60006020828403121561194d57600080fd5b8151611405816113cf565b60208082526010908201526f155394d0519157d49150d2541251539560821b604082015260600190565b6001600160a01b038681168252851660208201526040810184905260806060820181905281018290526000828460a0840137600060a0848401015260a0601f19601f85011683010190509695505050505050565b6000602082840312156119e857600080fd5b815167ffffffffffffffff80821115611a0057600080fd5b818401915084601f830112611a1457600080fd5b815181811115611a2657611a2661156d565b611a39601f8201601f1916602001611583565b9150808252856020828501011115611a5057600080fd5b611a6181602084016020860161140c565b5094935050505056fea264697066735822122046eeaf81d32e1c9bec7ab8716061327bbf32ee37255b4b2b4b9bf276b42048be64736f6c63430008130033",
    "linkReferences": {}
  },
  "methodIdentifiers": {
    "approve(address,uint256)": "095ea7b3",
    "balanceOf(address)": "70a08231",
    "create(address,address,uint128,uint128,uint56,uint16,bytes32,bool,bool,bytes32,uint256[],uint256)": "3f891189",
    "getApproved(uint256)": "081812fc",
    "isApprovedForAll(address,address)": "e985e9c5",
    "name()": "06fdde03",
    "owner()": "8da5cb5b",
    "ownerOf(uint256)": "6352211e",
    "predictPoolDeploymentAddress(bytes32)": "16b0274a",
    "privatePoolImplementation()": "d82996fe",
    "privatePoolMetadata()": "9c75017b",
    "protocolFeeRate()": "58f85880",
    "safeTransferFrom(address,address,uint256)": "42842e0e",
    "safeTransferFrom(address,address,uint256,bytes)": "b88d4fde",
    "setApprovalForAll(address,bool)": "a22cb465",
    "setPrivatePoolImplementation(address)": "a4680a3a",
    "setPrivatePoolMetadata(address)": "8325cdcc",
    "setProtocolFeeRate(uint16)": "2e551c35",
    "supportsInterface(bytes4)": "01ffc9a7",
    "symbol()": "95d89b41",
    "tokenURI(uint256)": "c87b56dd",
    "transferFrom(address,address,uint256)": "23b872dd",
    "transferOwnership(address)": "f2fde38b",
    "withdraw(address,uint256)": "f3fef3a3"
  },
  "id": 33
}