{
  "abi": [
    {
      "inputs": [
        {
          "internalType": "string",
          "name": "_symbol",
          "type": "string"
        },
        {
          "internalType": "string",
          "name": "_name",
          "type": "string"
        },
        {
          "internalType": "contract IERC20",
          "name": "_collateralToken",
          "type": "address"
        },
        {
          "internalType": "contract IERC20",
          "name": "_loanToken",
          "type": "address"
        },
        {
          "internalType": "uint256",
          "name": "_maxCollateralRatioMantissa",
          "type": "uint256"
        },
        {
          "internalType": "uint256",
          "name": "_surgeMantissa",
          "type": "uint256"
        },
        {
          "internalType": "uint256",
          "name": "_collateralRatioFallDuration",
          "type": "uint256"
        },
        {
          "internalType": "uint256",
          "name": "_collateralRatioRecoveryDuration",
          "type": "uint256"
        },
        {
          "internalType": "uint256",
          "name": "_minRateMantissa",
          "type": "uint256"
        },
        {
          "internalType": "uint256",
          "name": "_surgeRateMantissa",
          "type": "uint256"
        },
        {
          "internalType": "uint256",
          "name": "_maxRateMantissa",
          "type": "uint256"
        }
      ],
      "stateMutability": "nonpayable",
      "type": "constructor"
    },
    {
      "anonymous": false,
      "inputs": [
        {
          "indexed": true,
          "internalType": "address",
          "name": "owner",
          "type": "address"
        },
        {
          "indexed": true,
          "internalType": "address",
          "name": "spender",
          "type": "address"
        },
        {
          "indexed": false,
          "internalType": "uint256",
          "name": "value",
          "type": "uint256"
        }
      ],
      "name": "Approval",
      "type": "event"
    },
    {
      "anonymous": false,
      "inputs": [
        {
          "indexed": true,
          "internalType": "address",
          "name": "user",
          "type": "address"
        },
        {
          "indexed": false,
          "internalType": "uint256",
          "name": "amount",
          "type": "uint256"
        }
      ],
      "name": "Borrow",
      "type": "event"
    },
    {
      "anonymous": false,
      "inputs": [
        {
          "indexed": true,
          "internalType": "address",
          "name": "user",
          "type": "address"
        },
        {
          "indexed": false,
          "internalType": "uint256",
          "name": "amount",
          "type": "uint256"
        }
      ],
      "name": "Divest",
      "type": "event"
    },
    {
      "anonymous": false,
      "inputs": [
        {
          "indexed": true,
          "internalType": "address",
          "name": "user",
          "type": "address"
        },
        {
          "indexed": false,
          "internalType": "uint256",
          "name": "amount",
          "type": "uint256"
        }
      ],
      "name": "Invest",
      "type": "event"
    },
    {
      "anonymous": false,
      "inputs": [
        {
          "indexed": true,
          "internalType": "address",
          "name": "user",
          "type": "address"
        },
        {
          "indexed": false,
          "internalType": "uint256",
          "name": "amount",
          "type": "uint256"
        },
        {
          "indexed": false,
          "internalType": "uint256",
          "name": "collateralReward",
          "type": "uint256"
        }
      ],
      "name": "Liquidate",
      "type": "event"
    },
    {
      "anonymous": false,
      "inputs": [
        {
          "indexed": true,
          "internalType": "address",
          "name": "user",
          "type": "address"
        },
        {
          "indexed": true,
          "internalType": "address",
          "name": "caller",
          "type": "address"
        },
        {
          "indexed": false,
          "internalType": "uint256",
          "name": "amount",
          "type": "uint256"
        }
      ],
      "name": "Repay",
      "type": "event"
    },
    {
      "anonymous": false,
      "inputs": [
        {
          "indexed": true,
          "internalType": "address",
          "name": "user",
          "type": "address"
        },
        {
          "indexed": true,
          "internalType": "address",
          "name": "caller",
          "type": "address"
        },
        {
          "indexed": false,
          "internalType": "uint256",
          "name": "amount",
          "type": "uint256"
        }
      ],
      "name": "Secure",
      "type": "event"
    },
    {
      "anonymous": false,
      "inputs": [
        {
          "indexed": true,
          "internalType": "address",
          "name": "from",
          "type": "address"
        },
        {
          "indexed": true,
          "internalType": "address",
          "name": "to",
          "type": "address"
        },
        {
          "indexed": false,
          "internalType": "uint256",
          "name": "value",
          "type": "uint256"
        }
      ],
      "name": "Transfer",
      "type": "event"
    },
    {
      "anonymous": false,
      "inputs": [
        {
          "indexed": true,
          "internalType": "address",
          "name": "user",
          "type": "address"
        },
        {
          "indexed": false,
          "internalType": "uint256",
          "name": "amount",
          "type": "uint256"
        }
      ],
      "name": "Unsecure",
      "type": "event"
    },
    {
      "inputs": [],
      "name": "COLLATERAL_RATIO_FALL_DURATION",
      "outputs": [
        {
          "internalType": "uint256",
          "name": "",
          "type": "uint256"
        }
      ],
      "stateMutability": "view",
      "type": "function"
    },
    {
      "inputs": [],
      "name": "COLLATERAL_RATIO_RECOVERY_DURATION",
      "outputs": [
        {
          "internalType": "uint256",
          "name": "",
          "type": "uint256"
        }
      ],
      "stateMutability": "view",
      "type": "function"
    },
    {
      "inputs": [],
      "name": "COLLATERAL_TOKEN",
      "outputs": [
        {
          "internalType": "contract IERC20",
          "name": "",
          "type": "address"
        }
      ],
      "stateMutability": "view",
      "type": "function"
    },
    {
      "inputs": [],
      "name": "FACTORY",
      "outputs": [
        {
          "internalType": "contract IFactory",
          "name": "",
          "type": "address"
        }
      ],
      "stateMutability": "view",
      "type": "function"
    },
    {
      "inputs": [],
      "name": "LOAN_TOKEN",
      "outputs": [
        {
          "internalType": "contract IERC20",
          "name": "",
          "type": "address"
        }
      ],
      "stateMutability": "view",
      "type": "function"
    },
    {
      "inputs": [],
      "name": "MAX_COLLATERAL_RATIO_MANTISSA",
      "outputs": [
        {
          "internalType": "uint256",
          "name": "",
          "type": "uint256"
        }
      ],
      "stateMutability": "view",
      "type": "function"
    },
    {
      "inputs": [],
      "name": "MAX_RATE",
      "outputs": [
        {
          "internalType": "uint256",
          "name": "",
          "type": "uint256"
        }
      ],
      "stateMutability": "view",
      "type": "function"
    },
    {
      "inputs": [],
      "name": "MIN_RATE",
      "outputs": [
        {
          "internalType": "uint256",
          "name": "",
          "type": "uint256"
        }
      ],
      "stateMutability": "view",
      "type": "function"
    },
    {
      "inputs": [],
      "name": "SURGE_MANTISSA",
      "outputs": [
        {
          "internalType": "uint256",
          "name": "",
          "type": "uint256"
        }
      ],
      "stateMutability": "view",
      "type": "function"
    },
    {
      "inputs": [],
      "name": "SURGE_RATE",
      "outputs": [
        {
          "internalType": "uint256",
          "name": "",
          "type": "uint256"
        }
      ],
      "stateMutability": "view",
      "type": "function"
    },
    {
      "inputs": [
        {
          "internalType": "address",
          "name": "to",
          "type": "address"
        },
        {
          "internalType": "uint256",
          "name": "amount",
          "type": "uint256"
        }
      ],
      "name": "addCollateral",
      "outputs": [],
      "stateMutability": "nonpayable",
      "type": "function"
    },
    {
      "inputs": [
        {
          "internalType": "address",
          "name": "",
          "type": "address"
        },
        {
          "internalType": "address",
          "name": "",
          "type": "address"
        }
      ],
      "name": "allowance",
      "outputs": [
        {
          "internalType": "uint256",
          "name": "",
          "type": "uint256"
        }
      ],
      "stateMutability": "view",
      "type": "function"
    },
    {
      "inputs": [
        {
          "internalType": "address",
          "name": "spender",
          "type": "address"
        },
        {
          "internalType": "uint256",
          "name": "amount",
          "type": "uint256"
        }
      ],
      "name": "approve",
      "outputs": [
        {
          "internalType": "bool",
          "name": "",
          "type": "bool"
        }
      ],
      "stateMutability": "nonpayable",
      "type": "function"
    },
    {
      "inputs": [
        {
          "internalType": "address",
          "name": "",
          "type": "address"
        }
      ],
      "name": "balanceOf",
      "outputs": [
        {
          "internalType": "uint256",
          "name": "",
          "type": "uint256"
        }
      ],
      "stateMutability": "view",
      "type": "function"
    },
    {
      "inputs": [
        {
          "internalType": "uint256",
          "name": "amount",
          "type": "uint256"
        }
      ],
      "name": "borrow",
      "outputs": [],
      "stateMutability": "nonpayable",
      "type": "function"
    },
    {
      "inputs": [
        {
          "internalType": "address",
          "name": "",
          "type": "address"
        }
      ],
      "name": "collateralBalanceOf",
      "outputs": [
        {
          "internalType": "uint256",
          "name": "",
          "type": "uint256"
        }
      ],
      "stateMutability": "view",
      "type": "function"
    },
    {
      "inputs": [
        {
          "internalType": "address",
          "name": "",
          "type": "address"
        }
      ],
      "name": "debtSharesBalanceOf",
      "outputs": [
        {
          "internalType": "uint256",
          "name": "",
          "type": "uint256"
        }
      ],
      "stateMutability": "view",
      "type": "function"
    },
    {
      "inputs": [],
      "name": "debtSharesSupply",
      "outputs": [
        {
          "internalType": "uint256",
          "name": "",
          "type": "uint256"
        }
      ],
      "stateMutability": "view",
      "type": "function"
    },
    {
      "inputs": [],
      "name": "decimals",
      "outputs": [
        {
          "internalType": "uint8",
          "name": "",
          "type": "uint8"
        }
      ],
      "stateMutability": "view",
      "type": "function"
    },
    {
      "inputs": [
        {
          "internalType": "uint256",
          "name": "amount",
          "type": "uint256"
        }
      ],
      "name": "deposit",
      "outputs": [],
      "stateMutability": "nonpayable",
      "type": "function"
    },
    {
      "inputs": [],
      "name": "lastAccrueInterestTime",
      "outputs": [
        {
          "internalType": "uint256",
          "name": "",
          "type": "uint256"
        }
      ],
      "stateMutability": "view",
      "type": "function"
    },
    {
      "inputs": [],
      "name": "lastCollateralRatioMantissa",
      "outputs": [
        {
          "internalType": "uint256",
          "name": "",
          "type": "uint256"
        }
      ],
      "stateMutability": "view",
      "type": "function"
    },
    {
      "inputs": [],
      "name": "lastTotalDebt",
      "outputs": [
        {
          "internalType": "uint256",
          "name": "",
          "type": "uint256"
        }
      ],
      "stateMutability": "view",
      "type": "function"
    },
    {
      "inputs": [
        {
          "internalType": "address",
          "name": "borrower",
          "type": "address"
        },
        {
          "internalType": "uint256",
          "name": "amount",
          "type": "uint256"
        }
      ],
      "name": "liquidate",
      "outputs": [],
      "stateMutability": "nonpayable",
      "type": "function"
    },
    {
      "inputs": [],
      "name": "name",
      "outputs": [
        {
          "internalType": "string",
          "name": "",
          "type": "string"
        }
      ],
      "stateMutability": "view",
      "type": "function"
    },
    {
      "inputs": [
        {
          "internalType": "uint256",
          "name": "amount",
          "type": "uint256"
        }
      ],
      "name": "removeCollateral",
      "outputs": [],
      "stateMutability": "nonpayable",
      "type": "function"
    },
    {
      "inputs": [
        {
          "internalType": "address",
          "name": "borrower",
          "type": "address"
        },
        {
          "internalType": "uint256",
          "name": "amount",
          "type": "uint256"
        }
      ],
      "name": "repay",
      "outputs": [],
      "stateMutability": "nonpayable",
      "type": "function"
    },
    {
      "inputs": [],
      "name": "symbol",
      "outputs": [
        {
          "internalType": "string",
          "name": "",
          "type": "string"
        }
      ],
      "stateMutability": "view",
      "type": "function"
    },
    {
      "inputs": [],
      "name": "totalSupply",
      "outputs": [
        {
          "internalType": "uint256",
          "name": "",
          "type": "uint256"
        }
      ],
      "stateMutability": "view",
      "type": "function"
    },
    {
      "inputs": [
        {
          "internalType": "address",
          "name": "to",
          "type": "address"
        },
        {
          "internalType": "uint256",
          "name": "amount",
          "type": "uint256"
        }
      ],
      "name": "transfer",
      "outputs": [
        {
          "internalType": "bool",
          "name": "",
          "type": "bool"
        }
      ],
      "stateMutability": "nonpayable",
      "type": "function"
    },
    {
      "inputs": [
        {
          "internalType": "address",
          "name": "from",
          "type": "address"
        },
        {
          "internalType": "address",
          "name": "to",
          "type": "address"
        },
        {
          "internalType": "uint256",
          "name": "amount",
          "type": "uint256"
        }
      ],
      "name": "transferFrom",
      "outputs": [
        {
          "internalType": "bool",
          "name": "",
          "type": "bool"
        }
      ],
      "stateMutability": "nonpayable",
      "type": "function"
    },
    {
      "inputs": [
        {
          "internalType": "uint256",
          "name": "amount",
          "type": "uint256"
        }
      ],
      "name": "withdraw",
      "outputs": [],
      "stateMutability": "nonpayable",
      "type": "function"
    }
  ],
  "bytecode": {
    "object": "0x6101c06040523480156200001257600080fd5b5060405162002b4038038062002b408339810160408190526200003591620004ca565b876001600160a01b0316896001600160a01b031603620000b65760405162461bcd60e51b815260206004820152603160248201527f49747341526163653a20636f6c6c61746572616c20616e64206c6f616e20746f6044820152706b656e7320617265207468652073616d6560781b60648201526084015b60405180910390fd5b600085116200011f5760405162461bcd60e51b815260206004820152602e60248201527f49747341526163653a205f636f6c6c61746572616c526174696f46616c6c447560448201526d726174696f6e20746f6f206c6f7760901b6064820152608401620000ad565b600084116200018c5760405162461bcd60e51b815260206004820152603260248201527f49747341526163653a205f636f6c6c61746572616c526174696f5265636f766560448201527172794475726174696f6e20746f6f206c6f7760701b6064820152608401620000ad565b60008711620001f45760405162461bcd60e51b815260206004820152602d60248201527f49747341526163653a205f6d6178436f6c6c61746572616c526174696f4d616e60448201526c746973736120746f6f206c6f7760981b6064820152608401620000ad565b670de0b6b3a76400008610620002575760405162461bcd60e51b815260206004820152602160248201527f49747341526163653a205f73757267654d616e746973736120746f6f206869676044820152600d60fb1b6064820152608401620000ad565b81831115620002b55760405162461bcd60e51b815260206004820152602360248201527f49747341526163653a205f6d696e526174654d616e746973736120746f6f20686044820152620d2ced60eb1b6064820152608401620000ad565b80821115620003155760405162461bcd60e51b815260206004820152602560248201527f49747341526163653a205f7375726765526174654d616e746973736120746f6f604482015264040d0d2ced60db1b6064820152608401620000ad565b68056bc75e2d631000008111156200037c5760405162461bcd60e51b815260206004820152602360248201527f49747341526163653a205f6d6178526174654d616e746973736120746f6f20686044820152620d2ced60eb1b6064820152608401620000ad565b60006200038a8c8262000635565b506001620003998b8262000635565b50336080526001600160a01b0398891660a0529690971660c05261014085905261016093909352610180919091526101a05260029190915560e052610100919091526101205250620007019050565b634e487b7160e01b600052604160045260246000fd5b600082601f8301126200041057600080fd5b81516001600160401b03808211156200042d576200042d620003e8565b604051601f8301601f19908116603f01168101908282118183101715620004585762000458620003e8565b816040528381526020925086838588010111156200047557600080fd5b600091505b838210156200049957858201830151818301840152908201906200047a565b600093810190920192909252949350505050565b80516001600160a01b0381168114620004c557600080fd5b919050565b60008060008060008060008060008060006101608c8e031215620004ed57600080fd5b8b516001600160401b038111156200050457600080fd5b620005128e828f01620003fe565b60208e0151909c5090506001600160401b038111156200053157600080fd5b6200053f8e828f01620003fe565b9a50506200055060408d01620004ad565b98506200056060608d01620004ad565b975060808c0151965060a08c0151955060c08c0151945060e08c015193506101008c015192506101208c015191506101408c015190509295989b509295989b9093969950565b600181811c90821680620005bb57607f821691505b602082108103620005dc57634e487b7160e01b600052602260045260246000fd5b50919050565b601f8211156200063057600081815260208120601f850160051c810160208610156200060b5750805b601f850160051c820191505b818110156200062c5782815560010162000617565b5050505b505050565b81516001600160401b03811115620006515762000651620003e8565b6200066981620006628454620005a6565b84620005e2565b602080601f831160018114620006a15760008415620006885750858301515b600019600386901b1c1916600185901b1785556200062c565b600085815260208120601f198616915b82811015620006d257888601518255948401946001909101908401620006b1565b5085821015620006f15787850151600019600388901b60f8161c191681555b5050505050600190811b01905550565b60805160a05160c05160e05161010051610120516101405161016051610180516101a0516123226200081e600039600081816103da015261193c0152600081816103b3015261191b0152600081816104ae015281816117310152818161197e01526119bc01526000818161023b015261195d0152600081816104740152611a1f01526000818161032001526119fe0152600081816104f501526119dd01526000818161035a0152818161067c0152818161088c015281816109f101528181610c0c01528181610c5501528181610ff801528181611207015281816112460152818161156d015281816115ea01526118a101526000818161054701528181610e5301528181610eac0152611599015260006102a101526123226000f3fe608060405234801561001057600080fd5b50600436106101f05760003560e01c8063732635391161010f578063bcbaf487116100a2578063c964a2f211610071578063c964a2f2146104d0578063d819bfef146104f0578063dd62ed3e14610517578063f5f1f1a71461054257600080fd5b8063bcbaf4871461045c578063c24dbebd1461046f578063c5ebeaec14610496578063c6f8f3be146104a957600080fd5b8063ab69647a116100de578063ab69647a14610417578063adaf958d14610420578063ae45d36e14610440578063b6b55f251461044957600080fd5b806373263539146103ae5780638a93dbdd146103d557806395d89b41146103fc578063a9059cbb1461040457600080fd5b8063313ce567116101875780636ebcd5e2116101565780636ebcd5e2146103555780636fbdc3131461037c57806370a082311461038557806371189b50146103a557600080fd5b8063313ce567146102ee5780633237c158146103085780635e98b3061461031b5780636d75b9ee1461034257600080fd5b806322867d78116101c357806322867d781461027457806323b872dd146102895780632dd310001461029c5780632e1a7d4d146102db57600080fd5b806306fdde03146101f5578063095ea7b3146102135780630aaa07cf1461023657806318160ddd1461026b575b600080fd5b6101fd610569565b60405161020a919061200e565b60405180910390f35b61022661022136600461205d565b6105f7565b604051901515815260200161020a565b61025d7f000000000000000000000000000000000000000000000000000000000000000081565b60405190815260200161020a565b61025d60075481565b61028761028236600461205d565b610664565b005b610226610297366004612087565b6108c0565b6102c37f000000000000000000000000000000000000000000000000000000000000000081565b6040516001600160a01b03909116815260200161020a565b6102876102e93660046120c3565b6109d9565b6102f6601281565b60405160ff909116815260200161020a565b6102876103163660046120c3565b610c3d565b61025d7f000000000000000000000000000000000000000000000000000000000000000081565b61028761035036600461205d565b610e79565b6102c37f000000000000000000000000000000000000000000000000000000000000000081565b61025d60065481565b61025d6103933660046120dc565b60096020526000908152604090205481565b61025d60025481565b61025d7f000000000000000000000000000000000000000000000000000000000000000081565b61025d7f000000000000000000000000000000000000000000000000000000000000000081565b6101fd610f17565b61022661041236600461205d565b610f24565b61025d60055481565b61025d61042e3660046120dc565b60046020526000908152604090205481565b61025d60035481565b6102876104573660046120c3565b610fe0565b61028761046a36600461205d565b61122e565b61025d7f000000000000000000000000000000000000000000000000000000000000000081565b6102876104a43660046120c3565b6115d2565b61025d7f000000000000000000000000000000000000000000000000000000000000000081565b61025d6104de3660046120dc565b600a6020526000908152604090205481565b61025d7f000000000000000000000000000000000000000000000000000000000000000081565b61025d6105253660046120f7565b600860209081526000928352604080842090915290825290205481565b6102c37f000000000000000000000000000000000000000000000000000000000000000081565b600180546105769061212a565b80601f01602080910402602001604051908101604052809291908181526020018280546105a29061212a565b80156105ef5780601f106105c4576101008083540402835291602001916105ef565b820191906000526020600020905b8154815290600101906020018083116105d257829003601f168201915b505050505081565b3360008181526008602090815260408083206001600160a01b038716808552925280832085905551919290917f8c5be1e5ebec7d5bd14f71427d1e84f3dd0314c0f7b2291e5b200ac8c7c3b925906106529086815260200190565b60405180910390a35060015b92915050565b6040516370a0823160e01b81523060048201526000907f00000000000000000000000000000000000000000000000000000000000000006001600160a01b0316906370a0823190602401602060405180830381865afa1580156106cb573d6000803e3d6000fd5b505050506040513d601f19601f820116820180604052508101906106ef9190612164565b905060008061011160009150915060008060008061071987866002546007546006546005546118d6565b60035493975091955093509150600060018a01610777576001600160a01b038b16600090815260046020526040902054610754908385611aec565b6001600160a01b038c16600090815260046020526040902054909a509050610787565b6107848a84846000611b47565b90505b6107918a84612193565b6001600160a01b038c166000908152600460205260408120805492955083929091906107be908490612193565b909155506107ce90508183612193565b600355600786905560058390554260065560028490556040518a815233906001600160a01b038d16907f05f2eeda0e08e4b437f487c8d7d29b14537d15e3488170dc3de5dbdf8dac46849060200160405180910390a38415610887576001600160a01b038816600090815260096020526040812080548792906108529084906121a6565b90915550506040518581526001600160a01b038916906000906000805160206122cd8339815191529060200160405180910390a35b6108b37f000000000000000000000000000000000000000000000000000000000000000033308d611bab565b5050505050505050505050565b60006001600160a01b03831661091d5760405162461bcd60e51b815260206004820181905260248201527f49747341526163653a20746f2063616e6e6f742062652061646472657373203060448201526064015b60405180910390fd5b6001600160a01b038416600090815260086020908152604080832033845290915281208054849290610950908490612193565b90915550506001600160a01b0384166000908152600960205260408120805484929061097d908490612193565b90915550506001600160a01b03808416600081815260096020526040908190208054860190555190918616906000805160206122cd833981519152906109c69086815260200190565b60405180910390a35060015b9392505050565b6040516370a0823160e01b81523060048201526000907f00000000000000000000000000000000000000000000000000000000000000006001600160a01b0316906370a0823190602401602060405180830381865afa158015610a40573d6000803e3d6000fd5b505050506040513d601f19601f82011682018060405250810190610a649190612164565b9050600080610111600091509150600080600080610a8e87866002546007546006546005546118d6565b935093509350935060006000198903610aea5784610aac89846121a6565b33600090815260096020526040902054610ac691906121b9565b610ad091906121e6565b336000908152600960205260409020549099509050610b03565b610b0089610af88a856121a6565b876001611b47565b90505b610b0d8186612193565b33600090815260096020526040812080549297508392909190610b31908490612193565b90915550506007859055600582905542600655600283905560405189815233907fd0684f854a3fe79e21e3104f9922cbd15ebbccb829ddb7ca03df6c625ffd00c29060200160405180910390a260405181815260009033906000805160206122cd8339815191529060200160405180910390a38315610c07576001600160a01b03871660009081526009602052604081208054869290610bd29084906121a6565b90915550506040518481526001600160a01b038816906000906000805160206122cd8339815191529060200160405180910390a35b610c327f0000000000000000000000000000000000000000000000000000000000000000338b611cfb565b505050505050505050565b6040516370a0823160e01b81523060048201526000907f00000000000000000000000000000000000000000000000000000000000000006001600160a01b0316906370a0823190602401602060405180830381865afa158015610ca4573d6000803e3d6000fd5b505050506040513d601f19601f82011682018060405250810190610cc89190612164565b9050600080610111600091509150600080600080610cf287866002546007546006546005546118d6565b33600090815260046020526040812054600354959950939750919550935091610d1c919084611aec565b90508015610d7f57336000908152600a6020526040812054610d3f908b90612193565b610d5183670de0b6b3a76400006121b9565b610d5b91906121e6565b905083811115610d7d5760405162461bcd60e51b815260040161091490612208565b505b60078590556005829055426006556002839055336000908152600a6020526040812080548b9290610db1908490612193565b909155505060405189815233907ff90cc115628ae1312d07c4e7f4a9812e341dabf1056ecf86f368ef4d912623f09060200160405180910390a28315610e4e576001600160a01b03871660009081526009602052604081208054869290610e199084906121a6565b90915550506040518481526001600160a01b038816906000906000805160206122cd8339815191529060200160405180910390a35b610c327f0000000000000000000000000000000000000000000000000000000000000000338b611cfb565b6001600160a01b0382166000908152600a602052604081208054839290610ea19084906121a6565b90915550610ed390507f0000000000000000000000000000000000000000000000000000000000000000333084611bab565b60405181815233906001600160a01b038416907f5a1f15457eb5af96b6ff29aa81e2df2d9eac8f26b6628a36fba53193b9314a1d9060200160405180910390a35050565b600080546105769061212a565b60006001600160a01b038316610f7c5760405162461bcd60e51b815260206004820181905260248201527f49747341526163653a20746f2063616e6e6f74206265206164647265737320306044820152606401610914565b3360009081526009602052604081208054849290610f9b908490612193565b90915550506001600160a01b038316600081815260096020526040908190208054850190555133906000805160206122cd833981519152906106529086815260200190565b6040516370a0823160e01b81523060048201526000907f00000000000000000000000000000000000000000000000000000000000000006001600160a01b0316906370a0823190602401602060405180830381865afa158015611047573d6000803e3d6000fd5b505050506040513d601f19601f8201168201806040525081019061106b9190612164565b905060008061011160009150915060008060008061109587866002546007546006546005546118d6565b935093509350935060006110b78989846110af91906121a6565b876000611b47565b9050600081116110fe5760405162461bcd60e51b815260206004820152601260248201527149747341526163653a20302073686172657360701b6044820152606401610914565b61110881866121a6565b3360009081526009602052604081208054929750839290919061112c9084906121a6565b90915550506007859055600582905542600655600283905560405189815233907fd90d253a9de34d2fdd5a75ae49ea17fcb43af32fc8ea08cc6d2341991dd3872e9060200160405180910390a260405181815233906000906000805160206122cd8339815191529060200160405180910390a38315611202576001600160a01b038716600090815260096020526040812080548692906111cd9084906121a6565b90915550506040518481526001600160a01b038816906000906000805160206122cd8339815191529060200160405180910390a35b610c327f000000000000000000000000000000000000000000000000000000000000000033308c611bab565b6040516370a0823160e01b81523060048201526000907f00000000000000000000000000000000000000000000000000000000000000006001600160a01b0316906370a0823190602401602060405180830381865afa158015611295573d6000803e3d6000fd5b505050506040513d601f19601f820116820180604052508101906112b99190612164565b90506000806101116000915091506000806000806112e387866002546007546006546005546118d6565b6001600160a01b038d166000908152600a6020908152604080832054600354600490935290832054969a509498509296509094509192909190611327908386611aec565b905060008361133e83670de0b6b3a76400006121b9565b61134891906121e6565b90508581116113a55760405162461bcd60e51b815260206004820152602360248201527f49747341526163653a20626f72726f776572206e6f74206c6971756964617461604482015262626c6560e81b6064820152608401610914565b8c8c6000806000198314806113b957508583145b156113e2575050506001600160a01b038116600090815260046020526040902054839086611433565b6000866113f78a670de0b6b3a76400006121b9565b61140191906121e6565b9050670de0b6b3a764000061141682866121b9565b61142091906121e6565b915061142f848b8a6000611b47565b9250505b61143d838a612193565b6001600160a01b03851660009081526004602052604081208054929b50849290919061146a908490612193565b9091555061147a90508288612193565b6003556114878189612193565b6001600160a01b0385166000818152600a60209081526040918290209390935560078f905560058c90554260065560028d9055805186815292830184905290917f3c4b1d42b9c7fa283f6fe657533f6a5a8a7ad1d36f9ef1d9d89ad04485e10d2c910160405180910390a28a156115685760008e90508b60096000836001600160a01b03166001600160a01b03168152602001908152602001600020600082825461153291906121a6565b90915550506040518c81526001600160a01b038216906000906000805160206122cd8339815191529060200160405180910390a3505b6115947f0000000000000000000000000000000000000000000000000000000000000000333086611bab565b6115bf7f00000000000000000000000000000000000000000000000000000000000000003383611cfb565b5050505050505050505050505050505050565b6040516370a0823160e01b81523060048201526000907f00000000000000000000000000000000000000000000000000000000000000006001600160a01b0316906370a0823190602401602060405180830381865afa158015611639573d6000803e3d6000fd5b505050506040513d601f19601f8201168201806040525081019061165d9190612164565b905060008061011160009150915060008060008061168787866002546007546006546005546118d6565b600354336000908152600460205260408120549599509397509195509350918a906116b3908486611aec565b6116bd91906121a6565b336000908152600a6020526040812054919250906116e383670de0b6b3a76400006121b9565b6116ed91906121e6565b90508481111561170f5760405162461bcd60e51b815260040161091490612208565b600061172d61171e8d876121a6565b6117288d886121a6565b611e46565b90507f000000000000000000000000000000000000000000000000000000000000000081111561179f5760405162461bcd60e51b815260206004820152601e60248201527f49747341526163653a207574696c697a6174696f6e20746f6f206869676800006044820152606401610914565b60006117ae8d87876001611b47565b90506117ba8d876121a6565b336000908152600460205260408120805492985083929091906117de9084906121a6565b909155506117ee905081866121a6565b600355600789905560058690554260065560028790556040518d815233907fcbc04eca7e9da35cb1393a6135a199ca52e450d5e9251cbd99f7847d33a367509060200160405180910390a2871561189c576001600160a01b038b16600090815260096020526040812080548a92906118679084906121a6565b90915550506040518881526001600160a01b038c16906000906000805160206122cd8339815191529060200160405180910390a35b6118c77f0000000000000000000000000000000000000000000000000000000000000000338f611cfb565b50505050505050505050505050565b8260008583826118e68742612193565b9050806000036118f65750611adf565b60006119028c886121a6565b905060006119108883611e46565b90506119a2818a428e7f00000000000000000000000000000000000000000000000000000000000000007f00000000000000000000000000000000000000000000000000000000000000007f00000000000000000000000000000000000000000000000000000000000000007f0000000000000000000000000000000000000000000000000000000000000000611e75565b9450876000036119b457505050611adf565b6000611a43827f00000000000000000000000000000000000000000000000000000000000000007f00000000000000000000000000000000000000000000000000000000000000007f00000000000000000000000000000000000000000000000000000000000000007f0000000000000000000000000000000000000000000000000000000000000000611f23565b905060006a1a1601fc4ea7109e00000085611a5e848d6121b9565b611a6891906121b9565b611a7291906121e6565b9050611a7e81876121a6565b95508d600003611a92575050505050611adf565b6000670de0b6b3a76400008f83611aa991906121b9565b611ab391906121e6565b905084611ac08e836121b9565b611aca91906121e6565b9850611ad6898b6121a6565b99505050505050505b9650965096509692505050565b600082600003611afe575060006109d2565b600083611b0b84876121b9565b611b1591906121e6565b9050611b2183866121b9565b611b2b85836121b9565b1015611b3f5780611b3b81612250565b9150505b949350505050565b600083600003611b58575083611b3f565b600084611b6585886121b9565b611b6f91906121e6565b9050828015611b8f5750611b8384876121b9565b611b8d86836121b9565b105b15611ba25780611b9e81612250565b9150505b95945050505050565b600080856001600160a01b03166040518060600160405280602581526020016122a86025913980516020909101206040516001600160a01b038089166024830152871660448201526064810186905260840160408051601f198184030181529181526020820180516001600160e01b03166001600160e01b0319909416939093179092529051611c3b9190612269565b6000604051808303816000865af19150503d8060008114611c78576040519150601f19603f3d011682016040523d82523d6000602084013e611c7d565b606091505b5091509150818015611ca7575080511580611ca7575080806020019051810190611ca79190612285565b611cf35760405162461bcd60e51b815260206004820152601e60248201527f49747341526163653a205452414e534645525f46524f4d5f4641494c454400006044820152606401610914565b505050505050565b604080518082018252601981527f7472616e7366657228616464726573732c75696e74323536290000000000000060209182015281516001600160a01b0385811660248301526044808301869052845180840390910181526064909201845291810180516001600160e01b031663a9059cbb60e01b17905291516000928392871691611d879190612269565b6000604051808303816000865af19150503d8060008114611dc4576040519150601f19603f3d011682016040523d82523d6000602084013e611dc9565b606091505b5091509150818015611df3575080511580611df3575080806020019051810190611df39190612285565b611e3f5760405162461bcd60e51b815260206004820152601960248201527f49747341526163653a205452414e534645525f4641494c4544000000000000006044820152606401610914565b5050505050565b600081600003611e585750600061065e565b81611e6b84670de0b6b3a76400006121b9565b6109d291906121e6565b6000868803611e85575084611f17565b818911611ed157828603611e9a575084611f17565b87870360008585830281611eb057611eb06121d0565b0490508481890110611ec6578492505050611f17565b87019150611f179050565b85600003611ee157506000611f17565b87870360008685830281611ef757611ef76121d0565b049050808811611f0c57600092505050611f17565b87039150611f179050565b98975050505050505050565b6000848611611f835783670de0b6b3a76400008688611f428488612193565b611f5490670de0b6b3a76400006121b9565b611f5e91906121b9565b611f6891906121e6565b611f7291906121e6565b611f7c91906121a6565b9050611ba2565b6000611f8f8688612193565b905083670de0b6b3a7640000611fa58882612193565b83611fb08888612193565b611fc290670de0b6b3a76400006121b9565b611fcc91906121b9565b611fd691906121e6565b611fe091906121e6565b611b9e91906121a6565b60005b83811015612005578181015183820152602001611fed565b50506000910152565b602081526000825180602084015261202d816040850160208701611fea565b601f01601f19169190910160400192915050565b80356001600160a01b038116811461205857600080fd5b919050565b6000806040838503121561207057600080fd5b61207983612041565b946020939093013593505050565b60008060006060848603121561209c57600080fd5b6120a584612041565b92506120b360208501612041565b9150604084013590509250925092565b6000602082840312156120d557600080fd5b5035919050565b6000602082840312156120ee57600080fd5b6109d282612041565b6000806040838503121561210a57600080fd5b61211383612041565b915061212160208401612041565b90509250929050565b600181811c9082168061213e57607f821691505b60208210810361215e57634e487b7160e01b600052602260045260246000fd5b50919050565b60006020828403121561217657600080fd5b5051919050565b634e487b7160e01b600052601160045260246000fd5b8181038181111561065e5761065e61217d565b8082018082111561065e5761065e61217d565b808202811582820484141761065e5761065e61217d565b634e487b7160e01b600052601260045260246000fd5b60008261220357634e487b7160e01b600052601260045260246000fd5b500490565b60208082526028908201527f49747341526163653a207573657220636f6c6c61746572616c20726174696f206040820152670e8dede40d0d2ced60c31b606082015260800190565b6000600182016122625761226261217d565b5060010190565b6000825161227b818460208701611fea565b9190910192915050565b60006020828403121561229757600080fd5b815180151581146109d257600080fdfe7472616e7366657246726f6d28616464726573732c616464726573732c75696e7432353629ddf252ad1be2c89b69c2b068fc378daa952ba7f163c4a11628f55a4df523b3efa2646970667358221220dc651855d328b03d786b3cd824ad7024ee3d94407c9cd71dee71596e6443e5d464736f6c63430008130033",
    "linkReferences": {}
  },
  "methodIdentifiers": {
    "COLLATERAL_RATIO_FALL_DURATION()": "73263539",
    "COLLATERAL_RATIO_RECOVERY_DURATION()": "8a93dbdd",
    "COLLATERAL_TOKEN()": "f5f1f1a7",
    "FACTORY()": "2dd31000",
    "LOAN_TOKEN()": "6ebcd5e2",
    "MAX_COLLATERAL_RATIO_MANTISSA()": "0aaa07cf",
    "MAX_RATE()": "c24dbebd",
    "MIN_RATE()": "d819bfef",
    "SURGE_MANTISSA()": "c6f8f3be",
    "SURGE_RATE()": "5e98b306",
    "addCollateral(address,uint256)": "6d75b9ee",
    "allowance(address,address)": "dd62ed3e",
    "approve(address,uint256)": "095ea7b3",
    "balanceOf(address)": "70a08231",
    "borrow(uint256)": "c5ebeaec",
    "collateralBalanceOf(address)": "c964a2f2",
    "debtSharesBalanceOf(address)": "adaf958d",
    "debtSharesSupply()": "ae45d36e",
    "decimals()": "313ce567",
    "deposit(uint256)": "b6b55f25",
    "lastAccrueInterestTime()": "6fbdc313",
    "lastCollateralRatioMantissa()": "71189b50",
    "lastTotalDebt()": "ab69647a",
    "liquidate(address,uint256)": "bcbaf487",
    "name()": "06fdde03",
    "removeCollateral(uint256)": "3237c158",
    "repay(address,uint256)": "22867d78",
    "symbol()": "95d89b41",
    "totalSupply()": "18160ddd",
    "transfer(address,uint256)": "a9059cbb",
    "transferFrom(address,address,uint256)": "23b872dd",
    "withdraw(uint256)": "2e1a7d4d"
  },
  "id": 39
}