{
  "abi": [
    {
      "inputs": [],
      "stateMutability": "nonpayable",
      "type": "constructor"
    },
    {
      "anonymous": false,
      "inputs": [
        {
          "indexed": true,
          "internalType": "address",
          "name": "owner",
          "type": "address"
        },
        {
          "indexed": true,
          "internalType": "address",
          "name": "approved",
          "type": "address"
        },
        {
          "indexed": true,
          "internalType": "uint256",
          "name": "tokenId",
          "type": "uint256"
        }
      ],
      "name": "Approval",
      "type": "event"
    },
    {
      "anonymous": false,
      "inputs": [
        {
          "indexed": true,
          "internalType": "address",
          "name": "owner",
          "type": "address"
        },
        {
          "indexed": true,
          "internalType": "address",
          "name": "operator",
          "type": "address"
        },
        {
          "indexed": false,
          "internalType": "bool",
          "name": "approved",
          "type": "bool"
        }
      ],
      "name": "ApprovalForAll",
      "type": "event"
    },
    {
      "anonymous": false,
      "inputs": [
        {
          "indexed": true,
          "internalType": "address",
          "name": "from",
          "type": "address"
        },
        {
          "indexed": true,
          "internalType": "address",
          "name": "to",
          "type": "address"
        },
        {
          "indexed": true,
          "internalType": "uint256",
          "name": "tokenId",
          "type": "uint256"
        }
      ],
      "name": "Transfer",
      "type": "event"
    },
    {
      "inputs": [
        {
          "internalType": "address",
          "name": "to",
          "type": "address"
        },
        {
          "internalType": "uint256",
          "name": "tokenId",
          "type": "uint256"
        }
      ],
      "name": "approve",
      "outputs": [],
      "stateMutability": "nonpayable",
      "type": "function"
    },
    {
      "inputs": [
        {
          "internalType": "address",
          "name": "owner",
          "type": "address"
        }
      ],
      "name": "balanceOf",
      "outputs": [
        {
          "internalType": "uint256",
          "name": "",
          "type": "uint256"
        }
      ],
      "stateMutability": "view",
      "type": "function"
    },
    {
      "inputs": [
        {
          "internalType": "uint256",
          "name": "tokenId",
          "type": "uint256"
        }
      ],
      "name": "getApproved",
      "outputs": [
        {
          "internalType": "address",
          "name": "",
          "type": "address"
        }
      ],
      "stateMutability": "view",
      "type": "function"
    },
    {
      "inputs": [
        {
          "internalType": "address",
          "name": "owner",
          "type": "address"
        },
        {
          "internalType": "address",
          "name": "operator",
          "type": "address"
        }
      ],
      "name": "isApprovedForAll",
      "outputs": [
        {
          "internalType": "bool",
          "name": "",
          "type": "bool"
        }
      ],
      "stateMutability": "view",
      "type": "function"
    },
    {
      "inputs": [
        {
          "internalType": "address",
          "name": "to",
          "type": "address"
        },
        {
          "internalType": "uint256",
          "name": "id",
          "type": "uint256"
        }
      ],
      "name": "mint",
      "outputs": [],
      "stateMutability": "nonpayable",
      "type": "function"
    },
    {
      "inputs": [],
      "name": "name",
      "outputs": [
        {
          "internalType": "string",
          "name": "",
          "type": "string"
        }
      ],
      "stateMutability": "view",
      "type": "function"
    },
    {
      "inputs": [
        {
          "internalType": "uint256",
          "name": "tokenId",
          "type": "uint256"
        }
      ],
      "name": "ownerOf",
      "outputs": [
        {
          "internalType": "address",
          "name": "",
          "type": "address"
        }
      ],
      "stateMutability": "view",
      "type": "function"
    },
    {
      "inputs": [],
      "name": "royaltyFeeRate",
      "outputs": [
        {
          "internalType": "uint256",
          "name": "",
          "type": "uint256"
        }
      ],
      "stateMutability": "view",
      "type": "function"
    },
    {
      "inputs": [
        {
          "internalType": "uint256",
          "name": "",
          "type": "uint256"
        },
        {
          "internalType": "uint256",
          "name": "salePrice",
          "type": "uint256"
        }
      ],
      "name": "royaltyInfo",
      "outputs": [
        {
          "internalType": "address",
          "name": "",
          "type": "address"
        },
        {
          "internalType": "uint256",
          "name": "",
          "type": "uint256"
        }
      ],
      "stateMutability": "view",
      "type": "function"
    },
    {
      "inputs": [],
      "name": "royaltyRecipient",
      "outputs": [
        {
          "internalType": "address",
          "name": "",
          "type": "address"
        }
      ],
      "stateMutability": "view",
      "type": "function"
    },
    {
      "inputs": [
        {
          "internalType": "address",
          "name": "from",
          "type": "address"
        },
        {
          "internalType": "address",
          "name": "to",
          "type": "address"
        },
        {
          "internalType": "uint256",
          "name": "tokenId",
          "type": "uint256"
        }
      ],
      "name": "safeTransferFrom",
      "outputs": [],
      "stateMutability": "nonpayable",
      "type": "function"
    },
    {
      "inputs": [
        {
          "internalType": "address",
          "name": "from",
          "type": "address"
        },
        {
          "internalType": "address",
          "name": "to",
          "type": "address"
        },
        {
          "internalType": "uint256",
          "name": "tokenId",
          "type": "uint256"
        },
        {
          "internalType": "bytes",
          "name": "data",
          "type": "bytes"
        }
      ],
      "name": "safeTransferFrom",
      "outputs": [],
      "stateMutability": "nonpayable",
      "type": "function"
    },
    {
      "inputs": [
        {
          "internalType": "address",
          "name": "operator",
          "type": "address"
        },
        {
          "internalType": "bool",
          "name": "approved",
          "type": "bool"
        }
      ],
      "name": "setApprovalForAll",
      "outputs": [],
      "stateMutability": "nonpayable",
      "type": "function"
    },
    {
      "inputs": [
        {
          "internalType": "uint256",
          "name": "_royaltyFeeRate",
          "type": "uint256"
        },
        {
          "internalType": "address",
          "name": "_royaltyRecipient",
          "type": "address"
        }
      ],
      "name": "setRoyaltyInfo",
      "outputs": [],
      "stateMutability": "nonpayable",
      "type": "function"
    },
    {
      "inputs": [
        {
          "internalType": "bytes4",
          "name": "interfaceId",
          "type": "bytes4"
        }
      ],
      "name": "supportsInterface",
      "outputs": [
        {
          "internalType": "bool",
          "name": "",
          "type": "bool"
        }
      ],
      "stateMutability": "view",
      "type": "function"
    },
    {
      "inputs": [],
      "name": "symbol",
      "outputs": [
        {
          "internalType": "string",
          "name": "",
          "type": "string"
        }
      ],
      "stateMutability": "view",
      "type": "function"
    },
    {
      "inputs": [
        {
          "internalType": "uint256",
          "name": "",
          "type": "uint256"
        }
      ],
      "name": "tokenURI",
      "outputs": [
        {
          "internalType": "string",
          "name": "",
          "type": "string"
        }
      ],
      "stateMutability": "view",
      "type": "function"
    },
    {
      "inputs": [
        {
          "internalType": "address",
          "name": "from",
          "type": "address"
        },
        {
          "internalType": "address",
          "name": "to",
          "type": "address"
        },
        {
          "internalType": "uint256",
          "name": "tokenId",
          "type": "uint256"
        }
      ],
      "name": "transferFrom",
      "outputs": [],
      "stateMutability": "nonpayable",
      "type": "function"
    }
  ],
  "bytecode": {
    "object": "0x60806040526000600855600980546001600160a01b03191690553480156200002657600080fd5b506040518060400160405280600c81526020016b26b4b630b23c9026b0b5b2b960a11b8152506040518060400160405280600381526020016213525360ea1b815250816000908162000079919062000136565b50600162000088828262000136565b50505062000202565b634e487b7160e01b600052604160045260246000fd5b600181811c90821680620000bc57607f821691505b602082108103620000dd57634e487b7160e01b600052602260045260246000fd5b50919050565b601f8211156200013157600081815260208120601f850160051c810160208610156200010c5750805b601f850160051c820191505b818110156200012d5782815560010162000118565b5050505b505050565b81516001600160401b0381111562000152576200015262000091565b6200016a81620001638454620000a7565b84620000e3565b602080601f831160018114620001a25760008415620001895750858301515b600019600386901b1c1916600185901b1785556200012d565b600085815260208120601f198616915b82811015620001d357888601518255948401946001909101908401620001b2565b5085821015620001f25787850151600019600388901b60f8161c191681555b5050505050600190811b01905550565b61125480620002126000396000f3fe608060405234801561001057600080fd5b50600436106101165760003560e01c80636352211e116100a2578063a22cb46511610071578063a22cb4651461025b578063b5de3d141461026e578063b88d4fde146102a3578063c87b56dd146102b6578063e985e9c5146102f057600080fd5b80636352211e1461021657806370a0823114610229578063766213181461024a57806395d89b411461025357600080fd5b806323b872dd116100e957806323b872dd146101985780632a55205a146101ab57806340c10f19146101dd57806342842e0e146101f05780634c00de821461020357600080fd5b806301ffc9a71461011b57806306fdde0314610143578063081812fc14610158578063095ea7b314610183575b600080fd5b61012e610129366004610d86565b610303565b60405190151581526020015b60405180910390f35b61014b610314565b60405161013a9190610df0565b61016b610166366004610e03565b6103a6565b6040516001600160a01b03909116815260200161013a565b610196610191366004610e38565b6103cd565b005b6101966101a6366004610e62565b6104e7565b6101be6101b9366004610e9e565b610518565b604080516001600160a01b03909316835260208301919091520161013a565b6101966101eb366004610e38565b61054c565b6101966101fe366004610e62565b61055a565b60095461016b906001600160a01b031681565b61016b610224366004610e03565b610575565b61023c610237366004610ec0565b6105d5565b60405190815260200161013a565b61023c60085481565b61014b61065b565b610196610269366004610edb565b61066a565b61019661027c366004610f17565b600891909155600980546001600160a01b0319166001600160a01b03909216919091179055565b6101966102b1366004610f59565b610675565b61014b6102c4366004610e03565b5060408051808201909152601181527068747470733a2f2f6d696c6164792e696f60781b602082015290565b61012e6102fe366004611035565b6106ad565b600061030e826106db565b92915050565b6060600080546103239061105f565b80601f016020809104026020016040519081016040528092919081815260200182805461034f9061105f565b801561039c5780601f106103715761010080835404028352916020019161039c565b820191906000526020600020905b81548152906001019060200180831161037f57829003601f168201915b5050505050905090565b60006103b182610700565b506000908152600460205260409020546001600160a01b031690565b60006103d882610575565b9050806001600160a01b0316836001600160a01b03160361044a5760405162461bcd60e51b815260206004820152602160248201527f4552433732313a20617070726f76616c20746f2063757272656e74206f776e656044820152603960f91b60648201526084015b60405180910390fd5b336001600160a01b0382161480610466575061046681336106ad565b6104d85760405162461bcd60e51b815260206004820152603d60248201527f4552433732313a20617070726f76652063616c6c6572206973206e6f7420746f60448201527f6b656e206f776e6572206f7220617070726f76656420666f7220616c6c0000006064820152608401610441565b6104e28383610762565b505050565b6104f133826107d0565b61050d5760405162461bcd60e51b815260040161044190611099565b6104e283838361082f565b60008063beefbeef670de0b6b3a76400006008548561053791906110e6565b610541919061110b565b915091509250929050565b6105568282610993565b5050565b6104e283838360405180602001604052806000815250610675565b6000818152600260205260408120546001600160a01b03168061030e5760405162461bcd60e51b8152602060048201526018602482015277115490cdcc8c4e881a5b9d985b1a59081d1bdad95b88125160421b6044820152606401610441565b60006001600160a01b03821661063f5760405162461bcd60e51b815260206004820152602960248201527f4552433732313a2061646472657373207a65726f206973206e6f7420612076616044820152683634b21037bbb732b960b91b6064820152608401610441565b506001600160a01b031660009081526003602052604090205490565b6060600180546103239061105f565b610556338383610b1e565b61067f33836107d0565b61069b5760405162461bcd60e51b815260040161044190611099565b6106a784848484610bec565b50505050565b6001600160a01b03918216600090815260056020908152604080832093909416825291909152205460ff1690565b60006001600160e01b0319821663152a902d60e11b148061030e575061030e82610c1f565b6000818152600260205260409020546001600160a01b031661075f5760405162461bcd60e51b8152602060048201526018602482015277115490cdcc8c4e881a5b9d985b1a59081d1bdad95b88125160421b6044820152606401610441565b50565b600081815260046020526040902080546001600160a01b0319166001600160a01b038416908117909155819061079782610575565b6001600160a01b03167f8c5be1e5ebec7d5bd14f71427d1e84f3dd0314c0f7b2291e5b200ac8c7c3b92560405160405180910390a45050565b6000806107dc83610575565b9050806001600160a01b0316846001600160a01b03161480610803575061080381856106ad565b806108275750836001600160a01b031661081c846103a6565b6001600160a01b0316145b949350505050565b826001600160a01b031661084282610575565b6001600160a01b0316146108685760405162461bcd60e51b81526004016104419061112d565b6001600160a01b0382166108ca5760405162461bcd60e51b8152602060048201526024808201527f4552433732313a207472616e7366657220746f20746865207a65726f206164646044820152637265737360e01b6064820152608401610441565b826001600160a01b03166108dd82610575565b6001600160a01b0316146109035760405162461bcd60e51b81526004016104419061112d565b600081815260046020908152604080832080546001600160a01b03199081169091556001600160a01b0387811680865260038552838620805460001901905590871680865283862080546001019055868652600290945282852080549092168417909155905184937fddf252ad1be2c89b69c2b068fc378daa952ba7f163c4a11628f55a4df523b3ef91a4505050565b6001600160a01b0382166109e95760405162461bcd60e51b815260206004820181905260248201527f4552433732313a206d696e7420746f20746865207a65726f20616464726573736044820152606401610441565b6000818152600260205260409020546001600160a01b031615610a4e5760405162461bcd60e51b815260206004820152601c60248201527f4552433732313a20746f6b656e20616c7265616479206d696e746564000000006044820152606401610441565b6000818152600260205260409020546001600160a01b031615610ab35760405162461bcd60e51b815260206004820152601c60248201527f4552433732313a20746f6b656e20616c7265616479206d696e746564000000006044820152606401610441565b6001600160a01b038216600081815260036020908152604080832080546001019055848352600290915280822080546001600160a01b0319168417905551839291907fddf252ad1be2c89b69c2b068fc378daa952ba7f163c4a11628f55a4df523b3ef908290a45050565b816001600160a01b0316836001600160a01b031603610b7f5760405162461bcd60e51b815260206004820152601960248201527f4552433732313a20617070726f766520746f2063616c6c6572000000000000006044820152606401610441565b6001600160a01b03838116600081815260056020908152604080832094871680845294825291829020805460ff191686151590811790915591519182527f17307eab39ab6107e8899845ad3d59bd9653f200f220920489ca2b5937696c31910160405180910390a3505050565b610bf784848461082f565b610c0384848484610c6f565b6106a75760405162461bcd60e51b815260040161044190611172565b60006001600160e01b031982166380ac58cd60e01b1480610c5057506001600160e01b03198216635b5e139f60e01b145b8061030e57506301ffc9a760e01b6001600160e01b031983161461030e565b60006001600160a01b0384163b15610d6557604051630a85bd0160e11b81526001600160a01b0385169063150b7a0290610cb39033908990889088906004016111c4565b6020604051808303816000875af1925050508015610cee575060408051601f3d908101601f19168201909252610ceb91810190611201565b60015b610d4b573d808015610d1c576040519150601f19603f3d011682016040523d82523d6000602084013e610d21565b606091505b508051600003610d435760405162461bcd60e51b815260040161044190611172565b805181602001fd5b6001600160e01b031916630a85bd0160e11b149050610827565b506001949350505050565b6001600160e01b03198116811461075f57600080fd5b600060208284031215610d9857600080fd5b8135610da381610d70565b9392505050565b6000815180845260005b81811015610dd057602081850181015186830182015201610db4565b506000602082860101526020601f19601f83011685010191505092915050565b602081526000610da36020830184610daa565b600060208284031215610e1557600080fd5b5035919050565b80356001600160a01b0381168114610e3357600080fd5b919050565b60008060408385031215610e4b57600080fd5b610e5483610e1c565b946020939093013593505050565b600080600060608486031215610e7757600080fd5b610e8084610e1c565b9250610e8e60208501610e1c565b9150604084013590509250925092565b60008060408385031215610eb157600080fd5b50508035926020909101359150565b600060208284031215610ed257600080fd5b610da382610e1c565b60008060408385031215610eee57600080fd5b610ef783610e1c565b915060208301358015158114610f0c57600080fd5b809150509250929050565b60008060408385031215610f2a57600080fd5b82359150610f3a60208401610e1c565b90509250929050565b634e487b7160e01b600052604160045260246000fd5b60008060008060808587031215610f6f57600080fd5b610f7885610e1c565b9350610f8660208601610e1c565b925060408501359150606085013567ffffffffffffffff80821115610faa57600080fd5b818701915087601f830112610fbe57600080fd5b813581811115610fd057610fd0610f43565b604051601f8201601f19908116603f01168101908382118183101715610ff857610ff8610f43565b816040528281528a602084870101111561101157600080fd5b82602086016020830137600060208483010152809550505050505092959194509250565b6000806040838503121561104857600080fd5b61105183610e1c565b9150610f3a60208401610e1c565b600181811c9082168061107357607f821691505b60208210810361109357634e487b7160e01b600052602260045260246000fd5b50919050565b6020808252602d908201527f4552433732313a2063616c6c6572206973206e6f7420746f6b656e206f776e6560408201526c1c881bdc88185c1c1c9bdd9959609a1b606082015260800190565b808202811582820484141761030e57634e487b7160e01b600052601160045260246000fd5b60008261112857634e487b7160e01b600052601260045260246000fd5b500490565b60208082526025908201527f4552433732313a207472616e736665722066726f6d20696e636f72726563742060408201526437bbb732b960d91b606082015260800190565b60208082526032908201527f4552433732313a207472616e7366657220746f206e6f6e20455243373231526560408201527131b2b4bb32b91034b6b83632b6b2b73a32b960711b606082015260800190565b6001600160a01b03858116825284166020820152604081018390526080606082018190526000906111f790830184610daa565b9695505050505050565b60006020828403121561121357600080fd5b8151610da381610d7056fea264697066735822122075407a7210253a5b7153e40c372cd181c9135f48ed118c2fb9e0e89a3942819664736f6c63430008130033",
    "linkReferences": {}
  },
  "methodIdentifiers": {
    "approve(address,uint256)": "095ea7b3",
    "balanceOf(address)": "70a08231",
    "getApproved(uint256)": "081812fc",
    "isApprovedForAll(address,address)": "e985e9c5",
    "mint(address,uint256)": "40c10f19",
    "name()": "06fdde03",
    "ownerOf(uint256)": "6352211e",
    "royaltyFeeRate()": "76621318",
    "royaltyInfo(uint256,uint256)": "2a55205a",
    "royaltyRecipient()": "4c00de82",
    "safeTransferFrom(address,address,uint256)": "42842e0e",
    "safeTransferFrom(address,address,uint256,bytes)": "b88d4fde",
    "setApprovalForAll(address,bool)": "a22cb465",
    "setRoyaltyInfo(uint256,address)": "b5de3d14",
    "supportsInterface(bytes4)": "01ffc9a7",
    "symbol()": "95d89b41",
    "tokenURI(uint256)": "c87b56dd",
    "transferFrom(address,address,uint256)": "23b872dd"
  },
  "id": 1
}