{
  "abi": [
    {
      "inputs": [
        {
          "internalType": "address",
          "name": "_factory",
          "type": "address"
        },
        {
          "internalType": "address",
          "name": "_royaltyRegistry",
          "type": "address"
        },
        {
          "internalType": "address",
          "name": "_stolenNftOracle",
          "type": "address"
        }
      ],
      "stateMutability": "nonpayable",
      "type": "constructor"
    },
    {
      "inputs": [],
      "name": "AlreadyInitialized",
      "type": "error"
    },
    {
      "inputs": [],
      "name": "FeeRateTooHigh",
      "type": "error"
    },
    {
      "inputs": [],
      "name": "InsufficientInputWeight",
      "type": "error"
    },
    {
      "inputs": [],
      "name": "InvalidEthAmount",
      "type": "error"
    },
    {
      "inputs": [],
      "name": "InvalidMerkleProof",
      "type": "error"
    },
    {
      "inputs": [],
      "name": "InvalidRoyaltyFee",
      "type": "error"
    },
    {
      "inputs": [],
      "name": "Unauthorized",
      "type": "error"
    },
    {
      "anonymous": false,
      "inputs": [
        {
          "indexed": false,
          "internalType": "uint256[]",
          "name": "tokenIds",
          "type": "uint256[]"
        },
        {
          "indexed": false,
          "internalType": "uint256[]",
          "name": "tokenWeights",
          "type": "uint256[]"
        },
        {
          "indexed": false,
          "internalType": "uint256",
          "name": "inputAmount",
          "type": "uint256"
        },
        {
          "indexed": false,
          "internalType": "uint256",
          "name": "feeAmount",
          "type": "uint256"
        },
        {
          "indexed": false,
          "internalType": "uint256",
          "name": "protocolFeeAmount",
          "type": "uint256"
        },
        {
          "indexed": false,
          "internalType": "uint256",
          "name": "royaltyFeeAmount",
          "type": "uint256"
        }
      ],
      "name": "Buy",
      "type": "event"
    },
    {
      "anonymous": false,
      "inputs": [
        {
          "indexed": false,
          "internalType": "uint256[]",
          "name": "inputTokenIds",
          "type": "uint256[]"
        },
        {
          "indexed": false,
          "internalType": "uint256[]",
          "name": "inputTokenWeights",
          "type": "uint256[]"
        },
        {
          "indexed": false,
          "internalType": "uint256[]",
          "name": "outputTokenIds",
          "type": "uint256[]"
        },
        {
          "indexed": false,
          "internalType": "uint256[]",
          "name": "outputTokenWeights",
          "type": "uint256[]"
        },
        {
          "indexed": false,
          "internalType": "uint256",
          "name": "feeAmount",
          "type": "uint256"
        },
        {
          "indexed": false,
          "internalType": "uint256",
          "name": "protocolFeeAmount",
          "type": "uint256"
        }
      ],
      "name": "Change",
      "type": "event"
    },
    {
      "anonymous": false,
      "inputs": [
        {
          "indexed": false,
          "internalType": "uint256[]",
          "name": "tokenIds",
          "type": "uint256[]"
        },
        {
          "indexed": false,
          "internalType": "uint256",
          "name": "baseTokenAmount",
          "type": "uint256"
        }
      ],
      "name": "Deposit",
      "type": "event"
    },
    {
      "anonymous": false,
      "inputs": [
        {
          "indexed": true,
          "internalType": "address",
          "name": "baseToken",
          "type": "address"
        },
        {
          "indexed": true,
          "internalType": "address",
          "name": "nft",
          "type": "address"
        },
        {
          "indexed": false,
          "internalType": "uint128",
          "name": "virtualBaseTokenReserves",
          "type": "uint128"
        },
        {
          "indexed": false,
          "internalType": "uint128",
          "name": "virtualNftReserves",
          "type": "uint128"
        },
        {
          "indexed": false,
          "internalType": "uint56",
          "name": "changeFee",
          "type": "uint56"
        },
        {
          "indexed": false,
          "internalType": "uint16",
          "name": "feeRate",
          "type": "uint16"
        },
        {
          "indexed": false,
          "internalType": "bytes32",
          "name": "merkleRoot",
          "type": "bytes32"
        },
        {
          "indexed": false,
          "internalType": "bool",
          "name": "useStolenNftOracle",
          "type": "bool"
        },
        {
          "indexed": false,
          "internalType": "bool",
          "name": "payRoyalties",
          "type": "bool"
        }
      ],
      "name": "Initialize",
      "type": "event"
    },
    {
      "anonymous": false,
      "inputs": [
        {
          "indexed": false,
          "internalType": "uint256[]",
          "name": "tokenIds",
          "type": "uint256[]"
        },
        {
          "indexed": false,
          "internalType": "uint256[]",
          "name": "tokenWeights",
          "type": "uint256[]"
        },
        {
          "indexed": false,
          "internalType": "uint256",
          "name": "outputAmount",
          "type": "uint256"
        },
        {
          "indexed": false,
          "internalType": "uint256",
          "name": "feeAmount",
          "type": "uint256"
        },
        {
          "indexed": false,
          "internalType": "uint256",
          "name": "protocolFeeAmount",
          "type": "uint256"
        },
        {
          "indexed": false,
          "internalType": "uint256",
          "name": "royaltyFeeAmount",
          "type": "uint256"
        }
      ],
      "name": "Sell",
      "type": "event"
    },
    {
      "anonymous": false,
      "inputs": [
        {
          "indexed": false,
          "internalType": "uint16",
          "name": "feeRate",
          "type": "uint16"
        }
      ],
      "name": "SetFeeRate",
      "type": "event"
    },
    {
      "anonymous": false,
      "inputs": [
        {
          "indexed": false,
          "internalType": "bytes32",
          "name": "merkleRoot",
          "type": "bytes32"
        }
      ],
      "name": "SetMerkleRoot",
      "type": "event"
    },
    {
      "anonymous": false,
      "inputs": [
        {
          "indexed": false,
          "internalType": "bool",
          "name": "payRoyalties",
          "type": "bool"
        }
      ],
      "name": "SetPayRoyalties",
      "type": "event"
    },
    {
      "anonymous": false,
      "inputs": [
        {
          "indexed": false,
          "internalType": "bool",
          "name": "useStolenNftOracle",
          "type": "bool"
        }
      ],
      "name": "SetUseStolenNftOracle",
      "type": "event"
    },
    {
      "anonymous": false,
      "inputs": [
        {
          "indexed": false,
          "internalType": "uint128",
          "name": "virtualBaseTokenReserves",
          "type": "uint128"
        },
        {
          "indexed": false,
          "internalType": "uint128",
          "name": "virtualNftReserves",
          "type": "uint128"
        }
      ],
      "name": "SetVirtualReserves",
      "type": "event"
    },
    {
      "anonymous": false,
      "inputs": [
        {
          "indexed": true,
          "internalType": "address",
          "name": "nft",
          "type": "address"
        },
        {
          "indexed": false,
          "internalType": "uint256[]",
          "name": "tokenIds",
          "type": "uint256[]"
        },
        {
          "indexed": false,
          "internalType": "address",
          "name": "token",
          "type": "address"
        },
        {
          "indexed": false,
          "internalType": "uint256",
          "name": "amount",
          "type": "uint256"
        }
      ],
      "name": "Withdraw",
      "type": "event"
    },
    {
      "inputs": [],
      "name": "baseToken",
      "outputs": [
        {
          "internalType": "address",
          "name": "",
          "type": "address"
        }
      ],
      "stateMutability": "view",
      "type": "function"
    },
    {
      "inputs": [
        {
          "internalType": "uint256[]",
          "name": "tokenIds",
          "type": "uint256[]"
        },
        {
          "internalType": "uint256[]",
          "name": "tokenWeights",
          "type": "uint256[]"
        },
        {
          "components": [
            {
              "internalType": "bytes32[]",
              "name": "proof",
              "type": "bytes32[]"
            },
            {
              "internalType": "bool[]",
              "name": "flags",
              "type": "bool[]"
            }
          ],
          "internalType": "struct PrivatePool.MerkleMultiProof",
          "name": "proof",
          "type": "tuple"
        }
      ],
      "name": "buy",
      "outputs": [
        {
          "internalType": "uint256",
          "name": "netInputAmount",
          "type": "uint256"
        },
        {
          "internalType": "uint256",
          "name": "feeAmount",
          "type": "uint256"
        },
        {
          "internalType": "uint256",
          "name": "protocolFeeAmount",
          "type": "uint256"
        }
      ],
      "stateMutability": "payable",
      "type": "function"
    },
    {
      "inputs": [
        {
          "internalType": "uint256",
          "name": "outputAmount",
          "type": "uint256"
        }
      ],
      "name": "buyQuote",
      "outputs": [
        {
          "internalType": "uint256",
          "name": "netInputAmount",
          "type": "uint256"
        },
        {
          "internalType": "uint256",
          "name": "feeAmount",
          "type": "uint256"
        },
        {
          "internalType": "uint256",
          "name": "protocolFeeAmount",
          "type": "uint256"
        }
      ],
      "stateMutability": "view",
      "type": "function"
    },
    {
      "inputs": [
        {
          "internalType": "uint256[]",
          "name": "inputTokenIds",
          "type": "uint256[]"
        },
        {
          "internalType": "uint256[]",
          "name": "outputTokenIds",
          "type": "uint256[]"
        }
      ],
      "name": "change",
      "outputs": [
        {
          "internalType": "uint256",
          "name": "feeAmount",
          "type": "uint256"
        },
        {
          "internalType": "uint256",
          "name": "protocolFeeAmount",
          "type": "uint256"
        }
      ],
      "stateMutability": "payable",
      "type": "function"
    },
    {
      "inputs": [],
      "name": "changeFee",
      "outputs": [
        {
          "internalType": "uint56",
          "name": "",
          "type": "uint56"
        }
      ],
      "stateMutability": "view",
      "type": "function"
    },
    {
      "inputs": [
        {
          "internalType": "uint256",
          "name": "inputAmount",
          "type": "uint256"
        }
      ],
      "name": "changeFeeQuote",
      "outputs": [
        {
          "internalType": "uint256",
          "name": "feeAmount",
          "type": "uint256"
        }
      ],
      "stateMutability": "view",
      "type": "function"
    },
    {
      "inputs": [
        {
          "internalType": "address",
          "name": "target",
          "type": "address"
        },
        {
          "internalType": "bytes",
          "name": "data",
          "type": "bytes"
        }
      ],
      "name": "execute",
      "outputs": [
        {
          "internalType": "bytes",
          "name": "",
          "type": "bytes"
        }
      ],
      "stateMutability": "payable",
      "type": "function"
    },
    {
      "inputs": [],
      "name": "factory",
      "outputs": [
        {
          "internalType": "address payable",
          "name": "",
          "type": "address"
        }
      ],
      "stateMutability": "view",
      "type": "function"
    },
    {
      "inputs": [],
      "name": "feeRate",
      "outputs": [
        {
          "internalType": "uint16",
          "name": "",
          "type": "uint16"
        }
      ],
      "stateMutability": "view",
      "type": "function"
    },
    {
      "inputs": [
        {
          "internalType": "address",
          "name": "_baseToken",
          "type": "address"
        },
        {
          "internalType": "address",
          "name": "_nft",
          "type": "address"
        },
        {
          "internalType": "uint128",
          "name": "_virtualBaseTokenReserves",
          "type": "uint128"
        },
        {
          "internalType": "uint128",
          "name": "_virtualNftReserves",
          "type": "uint128"
        },
        {
          "internalType": "uint56",
          "name": "_changeFee",
          "type": "uint56"
        },
        {
          "internalType": "uint16",
          "name": "_feeRate",
          "type": "uint16"
        },
        {
          "internalType": "bytes32",
          "name": "_merkleRoot",
          "type": "bytes32"
        },
        {
          "internalType": "bool",
          "name": "_useStolenNftOracle",
          "type": "bool"
        },
        {
          "internalType": "bool",
          "name": "_payRoyalties",
          "type": "bool"
        }
      ],
      "name": "initialize",
      "outputs": [],
      "stateMutability": "nonpayable",
      "type": "function"
    },
    {
      "inputs": [],
      "name": "initialized",
      "outputs": [
        {
          "internalType": "bool",
          "name": "",
          "type": "bool"
        }
      ],
      "stateMutability": "view",
      "type": "function"
    },
    {
      "inputs": [],
      "name": "merkleRoot",
      "outputs": [
        {
          "internalType": "bytes32",
          "name": "",
          "type": "bytes32"
        }
      ],
      "stateMutability": "view",
      "type": "function"
    },
    {
      "inputs": [],
      "name": "nft",
      "outputs": [
        {
          "internalType": "address",
          "name": "",
          "type": "address"
        }
      ],
      "stateMutability": "view",
      "type": "function"
    },
    {
      "inputs": [
        {
          "internalType": "address",
          "name": "",
          "type": "address"
        },
        {
          "internalType": "address",
          "name": "",
          "type": "address"
        },
        {
          "internalType": "uint256",
          "name": "",
          "type": "uint256"
        },
        {
          "internalType": "bytes",
          "name": "",
          "type": "bytes"
        }
      ],
      "name": "onERC721Received",
      "outputs": [
        {
          "internalType": "bytes4",
          "name": "",
          "type": "bytes4"
        }
      ],
      "stateMutability": "nonpayable",
      "type": "function"
    },
    {
      "inputs": [],
      "name": "payRoyalties",
      "outputs": [
        {
          "internalType": "bool",
          "name": "",
          "type": "bool"
        }
      ],
      "stateMutability": "view",
      "type": "function"
    },
    {
      "inputs": [],
      "name": "price",
      "outputs": [
        {
          "internalType": "uint256",
          "name": "",
          "type": "uint256"
        }
      ],
      "stateMutability": "view",
      "type": "function"
    },
    {
      "inputs": [],
      "name": "royaltyRegistry",
      "outputs": [
        {
          "internalType": "address",
          "name": "",
          "type": "address"
        }
      ],
      "stateMutability": "view",
      "type": "function"
    },
    {
      "inputs": [
        {
          "internalType": "uint256[]",
          "name": "tokenIds",
          "type": "uint256[]"
        },
        {
          "internalType": "uint256[]",
          "name": "tokenWeights",
          "type": "uint256[]"
        },
        {
          "components": [
            {
              "internalType": "bytes32[]",
              "name": "proof",
              "type": "bytes32[]"
            },
            {
              "internalType": "bool[]",
              "name": "flags",
              "type": "bool[]"
            }
          ],
          "internalType": "struct PrivatePool.MerkleMultiProof",
          "name": "proof",
          "type": "tuple"
        },
        {
          "components": [
            {
              "internalType": "bytes32",
              "name": "id",
              "type": "bytes32"
            },
            {
              "internalType": "bytes",
              "name": "payload",
              "type": "bytes"
            },
            {
              "internalType": "uint256",
              "name": "timestamp",
              "type": "uint256"
            },
            {
              "internalType": "bytes",
              "name": "signature",
              "type": "bytes"
            }
          ],
          "internalType": "struct IStolenNftOracle.Message[]",
          "name": "stolenNftProofs",
          "type": "tuple[]"
        }
      ],
      "name": "sell",
      "outputs": [
        {
          "internalType": "uint256",
          "name": "netOutputAmount",
          "type": "uint256"
        },
        {
          "internalType": "uint256",
          "name": "feeAmount",
          "type": "uint256"
        },
        {
          "internalType": "uint256",
          "name": "protocolFeeAmount",
          "type": "uint256"
        }
      ],
      "stateMutability": "nonpayable",
      "type": "function"
    },
    {
      "inputs": [
        {
          "internalType": "uint256",
          "name": "inputAmount",
          "type": "uint256"
        }
      ],
      "name": "sellQuote",
      "outputs": [
        {
          "internalType": "uint256",
          "name": "netOutputAmount",
          "type": "uint256"
        },
        {
          "internalType": "uint256",
          "name": "feeAmount",
          "type": "uint256"
        },
        {
          "internalType": "uint256",
          "name": "protocolFeeAmount",
          "type": "uint256"
        }
      ],
      "stateMutability": "view",
      "type": "function"
    },
    {
      "inputs": [],
      "name": "stolenNftOracle",
      "outputs": [
        {
          "internalType": "address",
          "name": "",
          "type": "address"
        }
      ],
      "stateMutability": "view",
      "type": "function"
    },
    {
      "inputs": [
        {
          "internalType": "uint256[]",
          "name": "tokenIds",
          "type": "uint256[]"
        },
        {
          "internalType": "uint256[]",
          "name": "tokenWeights",
          "type": "uint256[]"
        },
        {
          "components": [
            {
              "internalType": "bytes32[]",
              "name": "proof",
              "type": "bytes32[]"
            },
            {
              "internalType": "bool[]",
              "name": "flags",
              "type": "bool[]"
            }
          ],
          "internalType": "struct PrivatePool.MerkleMultiProof",
          "name": "proof",
          "type": "tuple"
        }
      ],
      "name": "sumWeightsAndValidateProof",
      "outputs": [
        {
          "internalType": "uint256",
          "name": "",
          "type": "uint256"
        }
      ],
      "stateMutability": "view",
      "type": "function"
    },
    {
      "inputs": [],
      "name": "useStolenNftOracle",
      "outputs": [
        {
          "internalType": "bool",
          "name": "",
          "type": "bool"
        }
      ],
      "stateMutability": "view",
      "type": "function"
    },
    {
      "inputs": [],
      "name": "virtualBaseTokenReserves",
      "outputs": [
        {
          "internalType": "uint128",
          "name": "",
          "type": "uint128"
        }
      ],
      "stateMutability": "view",
      "type": "function"
    },
    {
      "inputs": [],
      "name": "virtualNftReserves",
      "outputs": [
        {
          "internalType": "uint128",
          "name": "",
          "type": "uint128"
        }
      ],
      "stateMutability": "view",
      "type": "function"
    },
    {
      "stateMutability": "payable",
      "type": "receive"
    }
  ],
  "bytecode": {
    "object": "0x60e06040523480156200001157600080fd5b5060405162002c1f38038062002c1f83398101604081905262000034916200006f565b6001600160a01b0392831660a05290821660c05216608052620000b9565b80516001600160a01b03811681146200006a57600080fd5b919050565b6000806000606084860312156200008557600080fd5b620000908462000052565b9250620000a06020850162000052565b9150620000b06040850162000052565b90509250925092565b60805160a05160c051612af06200012f600039600081816104190152611b2e0152600081816104ac0152818161058c015281816106860152818161089101528181610d0401528181610d62015281816115d30152818161168c015261183a01526000818161031801526113210152612af06000f3fe60806040526004361061014e5760003560e01c80638ed09e78116100b6578063c0fa087a1161006f578063c0fa087a1461047a578063c45a01551461049a578063c55dae63146104ce578063d7a2e4c9146104ee578063e322a56a1461050e578063f6fb3f8f1461052f57600080fd5b80638ed09e781461037c57806394bc65871461039d578063978bbdb9146103bd578063a035b1fe146103f2578063a11b071214610407578063a7f3af991461043b57600080fd5b806347ccca021161010857806347ccca0214610293578063512e5b02146102cb57806354d63d56146102f35780636edec091146103065780637c5fc1ea1461033a578063837090a51461035c57600080fd5b806240ff6c1461015a578063150b7a021461019e578063158ef93e146101e3578063168585e5146102145780631cff79cd1461024f5780632eb4a7ab1461026f57600080fd5b3661015557005b600080fd5b34801561016657600080fd5b5060015461018190600160a01b900466ffffffffffffff1681565b60405166ffffffffffffff90911681526020015b60405180910390f35b3480156101aa57600080fd5b506101ca6101b9366004611e02565b630a85bd0160e11b95945050505050565b6040516001600160e01b03199091168152602001610195565b3480156101ef57600080fd5b5060015461020490600160e81b900460ff1681565b6040519015158152602001610195565b34801561022057600080fd5b5061023461022f366004611ea0565b61054f565b60408051938452602084019290925290820152606001610195565b61026261025d366004611fb8565b61066e565b6040516101959190612057565b34801561027b57600080fd5b5061028560035481565b604051908152602001610195565b34801561029f57600080fd5b506001546102b3906001600160a01b031681565b6040516001600160a01b039091168152602001610195565b6102de6102d93660046120f8565b6107b1565b60408051928352602083019190915201610195565b6102346103013660046121b4565b610a49565b34801561031257600080fd5b506102b37f000000000000000000000000000000000000000000000000000000000000000081565b34801561034657600080fd5b5061035a610355366004612281565b610eaa565b005b34801561036857600080fd5b50610285610377366004612464565b6110d9565b34801561038857600080fd5b5060015461020490600160f81b900460ff1681565b3480156103a957600080fd5b506102346103b83660046124eb565b611269565b3480156103c957600080fd5b506001546103df90600160d81b900461ffff1681565b60405161ffff9091168152602001610195565b3480156103fe57600080fd5b50610285611704565b34801561041357600080fd5b506102b37f000000000000000000000000000000000000000000000000000000000000000081565b34801561044757600080fd5b5060025461046290600160801b90046001600160801b031681565b6040516001600160801b039091168152602001610195565b34801561048657600080fd5b50600254610462906001600160801b031681565b3480156104a657600080fd5b506102b37f000000000000000000000000000000000000000000000000000000000000000081565b3480156104da57600080fd5b506000546102b3906001600160a01b031681565b3480156104fa57600080fd5b50610234610509366004611ea0565b6117ec565b34801561051a57600080fd5b5060015461020490600160f01b900460ff1681565b34801561053b57600080fd5b5061028561054a366004611ea0565b611912565b6002546000908190819081906105859086906001600160801b0380821691610580918491600160801b9004166126af565b6119fa565b90506127107f00000000000000000000000000000000000000000000000000000000000000006001600160a01b03166358f858806040518163ffffffff1660e01b8152600401602060405180830381865afa1580156105e8573d6000803e3d6000fd5b505050506040513d601f19601f8201168201806040525081019061060c91906126c2565b61061a9061ffff16836126df565b61062491906126f6565b6001549092506127109061064390600160d81b900461ffff16836126df565b61064d91906126f6565b92508161065a8483612718565b6106649190612718565b9350509193909250565b6040516331a9108f60e11b81523060048201526060907f00000000000000000000000000000000000000000000000000000000000000006001600160a01b031690636352211e90602401602060405180830381865afa1580156106d5573d6000803e3d6000fd5b505050506040513d601f19601f820116820180604052508101906106f9919061272b565b6001600160a01b0316336001600160a01b031614610729576040516282b42960e81b815260040160405180910390fd5b600080846001600160a01b031634856040516107459190612748565b60006040518083038185875af1925050503d8060008114610782576040519150601f19603f3d011682016040523d82523d6000602084013e610787565b606091505b5091509150811561079b5791506107ab9050565b8051156101555780518082602001fd5b92915050565b6000805481906001600160a01b0316158015906107ce5750600034115b156107ec57604051630772327b60e01b815260040160405180910390fd5b60008451670de0b6b3a764000061080391906126df565b905060008451670de0b6b3a764000061081c91906126df565b90508082101561083f5760405163cb74557760e01b815260040160405180910390fd5b61084882611912565b6000549094506001600160a01b03161591506108bb905057600054610878906001600160a01b0316333085611a20565b80156108b6576000546108b6906001600160a01b0316337f000000000000000000000000000000000000000000000000000000000000000084611a20565b6108f8565b813410156108dc57604051630772327b60e01b815260040160405180910390fd5b813411156108f8576108f86108f183346126af565b3390611aaf565b60005b845181101561099c5760015485516001600160a01b03909116906342842e0e903390309089908690811061093157610931612764565b60200260200101516040518463ffffffff1660e01b81526004016109579392919061277a565b600060405180830381600087803b15801561097157600080fd5b505af1158015610985573d6000803e3d6000fd5b5050505080806109949061279e565b9150506108fb565b5060005b8351811015610a415760015484516001600160a01b03909116906323b872dd90309033908890869081106109d6576109d6612764565b60200260200101516040518463ffffffff1660e01b81526004016109fc9392919061277a565b600060405180830381600087803b158015610a1657600080fd5b505af1158015610a2a573d6000803e3d6000fd5b505050508080610a399061279e565b9150506109a0565b509250929050565b600080600080610ac289898080602002602001604051908101604052809392919081815260200183836020028082843760009201919091525050604080516020808d0282810182019093528c82529093508c92508b91829185019084908082843760009201919091525061037792508a91506127b79050565b9050610acd8161054f565b60005492965090945092506001600160a01b031615801590610aef5750600034115b15610b0d57604051630772327b60e01b815260040160405180910390fd5b81610b1884866126af565b610b2291906126af565b60028054600090610b3d9084906001600160801b03166127c3565b92506101000a8154816001600160801b0302191690836001600160801b0316021790555080600260108282829054906101000a90046001600160801b0316610b8591906127ea565b92506101000a8154816001600160801b0302191690836001600160801b03160217905550600089899050838587610bbc91906126af565b610bc691906126af565b610bd091906126f6565b90506000805b8a811015610cb5576001546001600160a01b03166342842e0e30338f8f86818110610c0357610c03612764565b905060200201356040518463ffffffff1660e01b8152600401610c289392919061277a565b600060405180830381600087803b158015610c4257600080fd5b505af1158015610c56573d6000803e3d6000fd5b5050600154600160f01b900460ff16159150610ca39050576000610c928d8d84818110610c8557610c85612764565b9050602002013585611b05565b509050610c9f8184612718565b9250505b80610cad8161279e565b915050610bd6565b50610cc08187612718565b6000549096506001600160a01b031615610d2e57600054610cec906001600160a01b0316333089611a20565b8315610d2957600054610d29906001600160a01b03167f000000000000000000000000000000000000000000000000000000000000000086611ca4565b610d9d565b85341015610d4f57604051630772327b60e01b815260040160405180910390fd5b8315610d8857610d886001600160a01b037f00000000000000000000000000000000000000000000000000000000000000001685611aaf565b85341115610d9d57610d9d6108f187346126af565b600154600160f01b900460ff1615610e575760005b8a811015610e5557600080610ddf8e8e85818110610dd257610dd2612764565b9050602002013586611b05565b91509150600082118015610dfb57506001600160a01b03811615155b15610e40576000546001600160a01b031615610e2d57600054610e28906001600160a01b03168284611ca4565b610e40565b610e406001600160a01b03821683611aaf565b50508080610e4d9061279e565b915050610db2565b505b7fc4e9532c21cfdf79a6140f622c12f94782abff32ef0cce8892890281f7d418848b8b8b8b8a8a8a88604051610e9498979695949392919061283c565b60405180910390a1505050955095509592505050565b600154600160e81b900460ff1615610ed45760405162dc149f60e41b815260040160405180910390fd5b6113888461ffff161115610efb57604051637186728f60e11b815260040160405180910390fd5b886000806101000a8154816001600160a01b0302191690836001600160a01b0316021790555087600160006101000a8154816001600160a01b0302191690836001600160a01b0316021790555086600260006101000a8154816001600160801b0302191690836001600160801b0316021790555085600260106101000a8154816001600160801b0302191690836001600160801b0316021790555084600160146101000a81548166ffffffffffffff021916908366ffffffffffffff160217905550836001601b6101000a81548161ffff021916908361ffff16021790555082600381905550816001601f6101000a81548160ff021916908315150217905550806001601e6101000a81548160ff021916908315150217905550600180601d6101000a81548160ff021916908315150217905550876001600160a01b0316896001600160a01b03167fce079b11b71b4666a4ada4e053675ae47109c84901d59cc1f28deb7584cdd402898989898989896040516110c697969594939291906001600160801b03978816815295909616602086015266ffffffffffffff93909316604085015261ffff9190911660608401526080830152151560a082015290151560c082015260e00190565b60405180910390a3505050505050505050565b6003546000906110fe5783516110f790670de0b6b3a76400006126df565b9050611262565b60008085516001600160401b0381111561111a5761111a611eb9565b604051908082528060200260200182016040528015611143578160200160208202803683370190505b50905060005b865181101561122a5786818151811061116457611164612764565b602002602001015186828151811061117e5761117e612764565b60200260200101516040516020016111a0929190918252602082015260400190565b60408051601f1981840301815282825280516020918201209083015201604051602081830303815290604052805190602001208282815181106111e5576111e5612764565b60200260200101818152505085818151811061120357611203612764565b6020026020010151836112169190612718565b9250806112228161279e565b915050611149565b506112418460000151600354838760200151611d22565b61125e5760405163582f497d60e11b815260040160405180910390fd5b5090505b9392505050565b6000806000806112e28a8a8080602002602001604051908101604052809392919081815260200183836020028082843760009201919091525050604080516020808e0282810182019093528d82529093508d92508c91829185019084908082843760009201919091525061037792508b91506127b79050565b90506112ed816117ec565b6001549296509094509250600160f81b900460ff161561139357600154604051638a4fa05b60e01b81526001600160a01b037f0000000000000000000000000000000000000000000000000000000000000000811692638a4fa05b926113609291909116908e908e908b9060040161288b565b600060405180830381600087803b15801561137a57600080fd5b505af115801561138e573d6000803e3d6000fd5b505050505b8261139e8386612718565b6113a89190612718565b600280546000906113c39084906001600160801b03166127ea565b92506101000a8154816001600160801b0302191690836001600160801b0316021790555080600260108282829054906101000a90046001600160801b031661140b91906127c3565b92506101000a8154816001600160801b0302191690836001600160801b031602179055506000805b8a811015611598576001546001600160a01b03166342842e0e33308f8f8681811061146057611460612764565b905060200201356040518463ffffffff1660e01b81526004016114859392919061277a565b600060405180830381600087803b15801561149f57600080fd5b505af11580156114b3573d6000803e3d6000fd5b5050600154600160f01b900460ff1615915061158690505760008b856114d9888a612718565b6114e39190612718565b6114ed91906126f6565b90506000806115148f8f8681811061150757611507612764565b9050602002013584611b05565b90925090506115238286612718565b945060008211801561153d57506001600160a01b03811615155b15611582576000546001600160a01b03161561156f5760005461156a906001600160a01b03168284611ca4565b611582565b6115826001600160a01b03821683611aaf565b5050505b806115908161279e565b915050611433565b506115a381866126af565b6000549095506001600160a01b03166115fe576115c03386611aaf565b82156115f9576115f96001600160a01b037f00000000000000000000000000000000000000000000000000000000000000001684611aaf565b6116b1565b60005460405163a9059cbb60e01b8152336004820152602481018790526001600160a01b039091169063a9059cbb906044016020604051808303816000875af115801561164f573d6000803e3d6000fd5b505050506040513d601f19601f82011682018060405250810190611673919061294b565b5082156116b1576000546116b1906001600160a01b03167f000000000000000000000000000000000000000000000000000000000000000085611ca4565b7f4024c9590bc84baadb7477e8a626441d9bd933b840059abd63fd9897e9ad10c38b8b8b8b898989886040516116ee98979695949392919061283c565b60405180910390a1505096509650969350505050565b6000805481906001600160a01b03161561179d5760008054906101000a90046001600160a01b03166001600160a01b031663313ce5676040518163ffffffff1660e01b8152600401602060405180830381865afa158015611769573d6000803e3d6000fd5b505050506040513d601f19601f8201168201806040525081019061178d9190612968565b61179890602461298b565b6117a0565b60125b60025460ff919091169150600160801b90046001600160801b03166117c682600a612a80565b6002546117dc91906001600160801b03166126df565b6117e691906126f6565b91505090565b600254600090819081908190611813908690600160801b90046001600160801b0316612718565b600254611829906001600160801b0316876126df565b61183391906126f6565b90506127107f00000000000000000000000000000000000000000000000000000000000000006001600160a01b03166358f858806040518163ffffffff1660e01b8152600401602060405180830381865afa158015611896573d6000803e3d6000fd5b505050506040513d601f19601f820116820180604052508101906118ba91906126c2565b6118c89061ffff16836126df565b6118d291906126f6565b600154909250612710906118f190600160d81b900461ffff16836126df565b6118fb91906126f6565b92508161190884836126af565b61066491906126af565b6000805481906001600160a01b0316156119a1576000546040805163313ce56760e01b815290516004926001600160a01b03169163313ce567918185019160209190819003860181865afa15801561196e573d6000803e3d6000fd5b505050506040513d601f19601f820116820180604052508101906119929190612968565b61199c919061298b565b6119a4565b600e5b60ff16905060006119b682600a612a80565b6001546119d39190600160a01b900466ffffffffffffff166126df565b9050670de0b6b3a76400006119e882866126df565b6119f291906126f6565b949350505050565b6000826000190484118302158202611a1157600080fd5b50910281810615159190040190565b60006040516323b872dd60e01b81528460048201528360248201528260448201526020600060648360008a5af13d15601f3d1160016000511416171691505080611aa85760405162461bcd60e51b81526020600482015260146024820152731514905394d1915497d19493d357d1905253115160621b60448201526064015b60405180910390fd5b5050505050565b600080600080600085875af1905080611b005760405162461bcd60e51b815260206004820152601360248201527211551217d514905394d1915497d19052531151606a1b6044820152606401611a9f565b505050565b60015460405163de5488af60e01b81526001600160a01b039182166004820152600091829182917f0000000000000000000000000000000000000000000000000000000000000000169063de5488af90602401602060405180830381865afa158015611b75573d6000803e3d6000fd5b505050506040513d601f19601f82011682018060405250810190611b99919061272b565b6040516301ffc9a760e01b815263152a902d60e11b60048201529091506001600160a01b038216906301ffc9a790602401602060405180830381865afa158015611be7573d6000803e3d6000fd5b505050506040513d601f19601f82011682018060405250810190611c0b919061294b565b15610a415760405163152a902d60e11b815260048101869052602481018590526001600160a01b03821690632a55205a906044016040805180830381865afa158015611c5b573d6000803e3d6000fd5b505050506040513d601f19601f82011682018060405250810190611c7f9190612a8c565b9350915083831115610a41576040516310f4520760e21b815260040160405180910390fd5b600060405163a9059cbb60e01b8152836004820152826024820152602060006044836000895af13d15601f3d1160016000511416171691505080611d1c5760405162461bcd60e51b815260206004820152600f60248201526e1514905394d1915497d19052531151608a1b6044820152606401611a9f565b50505050565b60008251855183518560200195508760200197508460200194506001810182840103611ddf5780611d5e578682878a1802871851149350611ddf565b6040518360051b935060005b848114611d81578781015182820152602001611d6a565b508381018260051b810192505b815160208301516040840193508851611db257508a516020909b019a601f19909301925b80821160051b918252602091821852604060002082529687019601828110611d8e57601f19015188149450505b505050949350505050565b6001600160a01b0381168114611dff57600080fd5b50565b600080600080600060808688031215611e1a57600080fd5b8535611e2581611dea565b94506020860135611e3581611dea565b93506040860135925060608601356001600160401b0380821115611e5857600080fd5b818801915088601f830112611e6c57600080fd5b813581811115611e7b57600080fd5b896020828501011115611e8d57600080fd5b9699959850939650602001949392505050565b600060208284031215611eb257600080fd5b5035919050565b634e487b7160e01b600052604160045260246000fd5b604080519081016001600160401b0381118282101715611ef157611ef1611eb9565b60405290565b604051608081016001600160401b0381118282101715611ef157611ef1611eb9565b604051601f8201601f191681016001600160401b0381118282101715611f4157611f41611eb9565b604052919050565b600082601f830112611f5a57600080fd5b81356001600160401b03811115611f7357611f73611eb9565b611f86601f8201601f1916602001611f19565b818152846020838601011115611f9b57600080fd5b816020850160208301376000918101602001919091529392505050565b60008060408385031215611fcb57600080fd5b8235611fd681611dea565b915060208301356001600160401b03811115611ff157600080fd5b611ffd85828601611f49565b9150509250929050565b60005b8381101561202257818101518382015260200161200a565b50506000910152565b60008151808452612043816020860160208601612007565b601f01601f19169290920160200192915050565b602081526000611262602083018461202b565b60006001600160401b0382111561208357612083611eb9565b5060051b60200190565b600082601f83011261209e57600080fd5b813560206120b36120ae8361206a565b611f19565b82815260059290921b840181019181810190868411156120d257600080fd5b8286015b848110156120ed57803583529183019183016120d6565b509695505050505050565b6000806040838503121561210b57600080fd5b82356001600160401b038082111561212257600080fd5b61212e8683870161208d565b9350602085013591508082111561214457600080fd5b50611ffd8582860161208d565b60008083601f84011261216357600080fd5b5081356001600160401b0381111561217a57600080fd5b6020830191508360208260051b850101111561219557600080fd5b9250929050565b6000604082840312156121ae57600080fd5b50919050565b6000806000806000606086880312156121cc57600080fd5b85356001600160401b03808211156121e357600080fd5b6121ef89838a01612151565b9097509550602088013591508082111561220857600080fd5b61221489838a01612151565b9095509350604088013591508082111561222d57600080fd5b5061223a8882890161219c565b9150509295509295909350565b80356001600160801b038116811461225e57600080fd5b919050565b61ffff81168114611dff57600080fd5b8015158114611dff57600080fd5b60008060008060008060008060006101208a8c0312156122a057600080fd5b89356122ab81611dea565b985060208a01356122bb81611dea565b97506122c960408b01612247565b96506122d760608b01612247565b955060808a013566ffffffffffffff811681146122f357600080fd5b945060a08a013561230381612263565b935060c08a0135925060e08a013561231a81612273565b91506101008a013561232b81612273565b809150509295985092959850929598565b600082601f83011261234d57600080fd5b8135602061235d6120ae8361206a565b82815260059290921b8401810191818101908684111561237c57600080fd5b8286015b848110156120ed57803561239381612273565b8352918301918301612380565b6000604082840312156123b257600080fd5b6123ba611ecf565b905081356001600160401b03808211156123d357600080fd5b818401915084601f8301126123e757600080fd5b813560206123f76120ae8361206a565b82815260059290921b8401810191818101908884111561241657600080fd5b948201945b838610156124345785358252948201949082019061241b565b8652508581013593508284111561244a57600080fd5b6124568785880161233c565b818601525050505092915050565b60008060006060848603121561247957600080fd5b83356001600160401b038082111561249057600080fd5b61249c8783880161208d565b945060208601359150808211156124b257600080fd5b6124be8783880161208d565b935060408601359150808211156124d457600080fd5b506124e1868287016123a0565b9150509250925092565b6000806000806000806080878903121561250457600080fd5b6001600160401b03808835111561251a57600080fd5b6125278989358a01612151565b9097509550602088013581101561253d57600080fd5b61254d8960208a01358a01612151565b9095509350604088013581101561256357600080fd5b6125738960408a01358a0161219c565b9250806060890135111561258657600080fd5b6060880135880189601f82011261259c57600080fd5b6125a96120ae823561206a565b81358082526020808301929160051b8401018c10156125c757600080fd5b602083015b6020843560051b8501018110156126875784813511156125eb57600080fd5b6080813585018e03601f1901121561260257600080fd5b61260a611ef7565b81358501602081013582526040013586101561262557600080fd5b61263b8e83358701604081013501602001611f49565b602082015281358501606081013560408301526080013586101561265e57600080fd5b6126748e83358701608081013501602001611f49565b60608201528352602092830192016125cc565b50809450505050509295509295509295565b634e487b7160e01b600052601160045260246000fd5b818103818111156107ab576107ab612699565b6000602082840312156126d457600080fd5b815161126281612263565b80820281158282048414176107ab576107ab612699565b60008261271357634e487b7160e01b600052601260045260246000fd5b500490565b808201808211156107ab576107ab612699565b60006020828403121561273d57600080fd5b815161126281611dea565b6000825161275a818460208701612007565b9190910192915050565b634e487b7160e01b600052603260045260246000fd5b6001600160a01b039384168152919092166020820152604081019190915260600190565b6000600182016127b0576127b0612699565b5060010190565b60006107ab36836123a0565b6001600160801b038181168382160190808211156127e3576127e3612699565b5092915050565b6001600160801b038281168282160390808211156127e3576127e3612699565b81835260006001600160fb1b0383111561282357600080fd5b8260051b80836020870137939093016020019392505050565b60c08152600061285060c083018a8c61280a565b828103602084015261286381898b61280a565b9150508560408301528460608301528360808301528260a08301529998505050505050505050565b6001600160a01b038516815260606020808301829052600091906128b2848301878961280a565b6040858203818701528187518084528484019150848160051b850101858a0160005b8381101561293857601f19878403018552815160808151855289820151818b8701526129028287018261202b565b91505087820151888601528a82015191508481038b860152612924818361202b565b968a019694505050908701906001016128d4565b50909d9c50505050505050505050505050565b60006020828403121561295d57600080fd5b815161126281612273565b60006020828403121561297a57600080fd5b815160ff8116811461126257600080fd5b60ff82811682821603908111156107ab576107ab612699565b600181815b80851115610a415781600019048211156129c5576129c5612699565b808516156129d257918102915b93841c93908002906129a9565b6000826129ee575060016107ab565b816129fb575060006107ab565b8160018114612a115760028114612a1b57612a37565b60019150506107ab565b60ff841115612a2c57612a2c612699565b50506001821b6107ab565b5060208310610133831016604e8410600b8410161715612a5a575081810a6107ab565b612a6483836129a4565b8060001904821115612a7857612a78612699565b029392505050565b600061126283836129df565b60008060408385031215612a9f57600080fd5b8251612aaa81611dea565b602093909301519294929350505056fea264697066735822122055dee2284a0728ffc516b5b66f801ac6a8f25f01307af7f02ace4e3012f3a89c64736f6c63430008130033",
    "linkReferences": {}
  },
  "methodIdentifiers": {
    "baseToken()": "c55dae63",
    "buy(uint256[],uint256[],(bytes32[],bool[]))": "54d63d56",
    "buyQuote(uint256)": "168585e5",
    "change(uint256[],uint256[])": "512e5b02",
    "changeFee()": "0040ff6c",
    "changeFeeQuote(uint256)": "f6fb3f8f",
    "execute(address,bytes)": "1cff79cd",
    "factory()": "c45a0155",
    "feeRate()": "978bbdb9",
    "initialize(address,address,uint128,uint128,uint56,uint16,bytes32,bool,bool)": "7c5fc1ea",
    "initialized()": "158ef93e",
    "merkleRoot()": "2eb4a7ab",
    "nft()": "47ccca02",
    "onERC721Received(address,address,uint256,bytes)": "150b7a02",
    "payRoyalties()": "e322a56a",
    "price()": "a035b1fe",
    "royaltyRegistry()": "a11b0712",
    "sell(uint256[],uint256[],(bytes32[],bool[]),(bytes32,bytes,uint256,bytes)[])": "94bc6587",
    "sellQuote(uint256)": "d7a2e4c9",
    "stolenNftOracle()": "6edec091",
    "sumWeightsAndValidateProof(uint256[],uint256[],(bytes32[],bool[]))": "837090a5",
    "useStolenNftOracle()": "8ed09e78",
    "virtualBaseTokenReserves()": "c0fa087a",
    "virtualNftReserves()": "a7f3af99"
  },
  "id": 32
}