{
  "abi": [
    {
      "inputs": [],
      "stateMutability": "nonpayable",
      "type": "constructor"
    },
    {
      "anonymous": false,
      "inputs": [
        {
          "indexed": true,
          "internalType": "address",
          "name": "_buyer",
          "type": "address"
        },
        {
          "indexed": false,
          "internalType": "uint256",
          "name": "_amount",
          "type": "uint256"
        },
        {
          "indexed": false,
          "internalType": "uint256",
          "name": "_value",
          "type": "uint256"
        },
        {
          "components": [
            {
              "internalType": "uint48",
              "name": "currentId",
              "type": "uint48"
            },
            {
              "internalType": "uint48",
              "name": "finalId",
              "type": "uint48"
            },
            {
              "internalType": "address",
              "name": "edition",
              "type": "address"
            },
            {
              "internalType": "uint80",
              "name": "startPrice",
              "type": "uint80"
            },
            {
              "internalType": "uint80",
              "name": "finalPrice",
              "type": "uint80"
            },
            {
              "internalType": "uint80",
              "name": "dropPerSecond",
              "type": "uint80"
            },
            {
              "internalType": "uint96",
              "name": "endTime",
              "type": "uint96"
            },
            {
              "internalType": "address payable",
              "name": "saleReceiver",
              "type": "address"
            },
            {
              "internalType": "uint96",
              "name": "startTime",
              "type": "uint96"
            }
          ],
          "indexed": false,
          "internalType": "struct BestThingsDutchAuction.Sale",
          "name": "_saleInfo",
          "type": "tuple"
        }
      ],
      "name": "Buy",
      "type": "event"
    },
    {
      "anonymous": false,
      "inputs": [
        {
          "components": [
            {
              "internalType": "uint48",
              "name": "currentId",
              "type": "uint48"
            },
            {
              "internalType": "uint48",
              "name": "finalId",
              "type": "uint48"
            },
            {
              "internalType": "address",
              "name": "edition",
              "type": "address"
            },
            {
              "internalType": "uint80",
              "name": "startPrice",
              "type": "uint80"
            },
            {
              "internalType": "uint80",
              "name": "finalPrice",
              "type": "uint80"
            },
            {
              "internalType": "uint80",
              "name": "dropPerSecond",
              "type": "uint80"
            },
            {
              "internalType": "uint96",
              "name": "endTime",
              "type": "uint96"
            },
            {
              "internalType": "address payable",
              "name": "saleReceiver",
              "type": "address"
            },
            {
              "internalType": "uint96",
              "name": "startTime",
              "type": "uint96"
            }
          ],
          "indexed": false,
          "internalType": "struct BestThingsDutchAuction.Sale",
          "name": "_saleInfo",
          "type": "tuple"
        }
      ],
      "name": "End",
      "type": "event"
    },
    {
      "anonymous": false,
      "inputs": [
        {
          "indexed": false,
          "internalType": "uint8",
          "name": "version",
          "type": "uint8"
        }
      ],
      "name": "Initialized",
      "type": "event"
    },
    {
      "anonymous": false,
      "inputs": [
        {
          "indexed": true,
          "internalType": "address",
          "name": "previousOwner",
          "type": "address"
        },
        {
          "indexed": true,
          "internalType": "address",
          "name": "newOwner",
          "type": "address"
        }
      ],
      "name": "OwnershipTransferred",
      "type": "event"
    },
    {
      "anonymous": false,
      "inputs": [
        {
          "components": [
            {
              "internalType": "uint48",
              "name": "currentId",
              "type": "uint48"
            },
            {
              "internalType": "uint48",
              "name": "finalId",
              "type": "uint48"
            },
            {
              "internalType": "address",
              "name": "edition",
              "type": "address"
            },
            {
              "internalType": "uint80",
              "name": "startPrice",
              "type": "uint80"
            },
            {
              "internalType": "uint80",
              "name": "finalPrice",
              "type": "uint80"
            },
            {
              "internalType": "uint80",
              "name": "dropPerSecond",
              "type": "uint80"
            },
            {
              "internalType": "uint96",
              "name": "endTime",
              "type": "uint96"
            },
            {
              "internalType": "address payable",
              "name": "saleReceiver",
              "type": "address"
            },
            {
              "internalType": "uint96",
              "name": "startTime",
              "type": "uint96"
            }
          ],
          "indexed": false,
          "internalType": "struct BestThingsDutchAuction.Sale",
          "name": "_saleInfo",
          "type": "tuple"
        }
      ],
      "name": "Start",
      "type": "event"
    },
    {
      "inputs": [],
      "name": "amountSold",
      "outputs": [
        {
          "internalType": "uint48",
          "name": "",
          "type": "uint48"
        }
      ],
      "stateMutability": "view",
      "type": "function"
    },
    {
      "inputs": [],
      "name": "available",
      "outputs": [
        {
          "internalType": "uint256",
          "name": "",
          "type": "uint256"
        }
      ],
      "stateMutability": "view",
      "type": "function"
    },
    {
      "inputs": [
        {
          "internalType": "uint256",
          "name": "_amount",
          "type": "uint256"
        }
      ],
      "name": "buy",
      "outputs": [],
      "stateMutability": "payable",
      "type": "function"
    },
    {
      "inputs": [],
      "name": "cancel",
      "outputs": [],
      "stateMutability": "nonpayable",
      "type": "function"
    },
    {
      "inputs": [],
      "name": "editionContract",
      "outputs": [
        {
          "internalType": "address",
          "name": "",
          "type": "address"
        }
      ],
      "stateMutability": "view",
      "type": "function"
    },
    {
      "inputs": [],
      "name": "factory",
      "outputs": [
        {
          "internalType": "address",
          "name": "",
          "type": "address"
        }
      ],
      "stateMutability": "view",
      "type": "function"
    },
    {
      "inputs": [],
      "name": "getPrice",
      "outputs": [
        {
          "internalType": "uint256",
          "name": "",
          "type": "uint256"
        }
      ],
      "stateMutability": "view",
      "type": "function"
    },
    {
      "inputs": [
        {
          "components": [
            {
              "internalType": "uint48",
              "name": "currentId",
              "type": "uint48"
            },
            {
              "internalType": "uint48",
              "name": "finalId",
              "type": "uint48"
            },
            {
              "internalType": "address",
              "name": "edition",
              "type": "address"
            },
            {
              "internalType": "uint80",
              "name": "startPrice",
              "type": "uint80"
            },
            {
              "internalType": "uint80",
              "name": "finalPrice",
              "type": "uint80"
            },
            {
              "internalType": "uint80",
              "name": "dropPerSecond",
              "type": "uint80"
            },
            {
              "internalType": "uint96",
              "name": "endTime",
              "type": "uint96"
            },
            {
              "internalType": "address payable",
              "name": "saleReceiver",
              "type": "address"
            },
            {
              "internalType": "uint96",
              "name": "startTime",
              "type": "uint96"
            }
          ],
          "internalType": "struct BestThingsDutchAuction.Sale",
          "name": "_sale",
          "type": "tuple"
        }
      ],
      "name": "initialize",
      "outputs": [],
      "stateMutability": "nonpayable",
      "type": "function"
    },
    {
      "inputs": [],
      "name": "lowestPrice",
      "outputs": [
        {
          "internalType": "uint256",
          "name": "",
          "type": "uint256"
        }
      ],
      "stateMutability": "view",
      "type": "function"
    },
    {
      "inputs": [],
      "name": "owner",
      "outputs": [
        {
          "internalType": "address",
          "name": "",
          "type": "address"
        }
      ],
      "stateMutability": "view",
      "type": "function"
    },
    {
      "inputs": [
        {
          "internalType": "address",
          "name": "",
          "type": "address"
        }
      ],
      "name": "receipts",
      "outputs": [
        {
          "internalType": "uint48",
          "name": "amount",
          "type": "uint48"
        },
        {
          "internalType": "uint80",
          "name": "balance",
          "type": "uint80"
        }
      ],
      "stateMutability": "view",
      "type": "function"
    },
    {
      "inputs": [],
      "name": "refund",
      "outputs": [],
      "stateMutability": "nonpayable",
      "type": "function"
    },
    {
      "inputs": [],
      "name": "renounceOwnership",
      "outputs": [],
      "stateMutability": "nonpayable",
      "type": "function"
    },
    {
      "inputs": [],
      "name": "sale",
      "outputs": [
        {
          "internalType": "uint48",
          "name": "currentId",
          "type": "uint48"
        },
        {
          "internalType": "uint48",
          "name": "finalId",
          "type": "uint48"
        },
        {
          "internalType": "address",
          "name": "edition",
          "type": "address"
        },
        {
          "internalType": "uint80",
          "name": "startPrice",
          "type": "uint80"
        },
        {
          "internalType": "uint80",
          "name": "finalPrice",
          "type": "uint80"
        },
        {
          "internalType": "uint80",
          "name": "dropPerSecond",
          "type": "uint80"
        },
        {
          "internalType": "uint96",
          "name": "endTime",
          "type": "uint96"
        },
        {
          "internalType": "address payable",
          "name": "saleReceiver",
          "type": "address"
        },
        {
          "internalType": "uint96",
          "name": "startTime",
          "type": "uint96"
        }
      ],
      "stateMutability": "view",
      "type": "function"
    },
    {
      "inputs": [],
      "name": "startTime",
      "outputs": [
        {
          "internalType": "uint256",
          "name": "",
          "type": "uint256"
        }
      ],
      "stateMutability": "view",
      "type": "function"
    },
    {
      "inputs": [
        {
          "internalType": "address",
          "name": "newOwner",
          "type": "address"
        }
      ],
      "name": "transferOwnership",
      "outputs": [],
      "stateMutability": "nonpayable",
      "type": "function"
    }
  ],
  "bytecode": {
    "object": "0x60a06040526069805465ffffffffffff1916905534801561001f57600080fd5b50336080908152604080516101208101825265ffffffffffff808252602082015260009181018290526001600160501b036060820181905281840181905260a08201526001600160601b0360c0820181905260e082018390526101009091018190526065819055606680546001600160f01b0319166001600160f01b031790556067819055606880546001600160601b0319169091179055905190611521906100d2903960006103b301526115216000f3fe6080604052600436106100f35760003560e01c806378e979251161008a578063c45a015511610059578063c45a0155146103a1578063d96a094a146103d5578063ea8a1af0146103e8578063f2fde38b146103fd57600080fd5b806378e979251461033b5780638da5cb5b1461035957806398d5fdca14610377578063be29b0561461038c57600080fd5b806352a16bb0116100c657806352a16bb0146101e8578063590e1ae31461021e5780636ad1fe0214610233578063715018a61461032657600080fd5b806338722c25146100f857806340ae8aba1461011a57806348a0d754146101585780634de4797b1461017b575b600080fd5b34801561010457600080fd5b50610118610113366004610e8c565b61041d565b005b34801561012657600080fd5b50606554600160601b90046001600160a01b03165b6040516001600160a01b0390911681526020015b60405180910390f35b34801561016457600080fd5b5061016d61058e565b60405190815260200161014f565b34801561018757600080fd5b506101c2610196366004610eca565b606a6020526000908152604090205465ffffffffffff811690600160301b90046001600160501b031682565b6040805165ffffffffffff90931683526001600160501b0390911660208301520161014f565b3480156101f457600080fd5b506069546102079065ffffffffffff1681565b60405165ffffffffffff909116815260200161014f565b34801561022a57600080fd5b506101186105bd565b34801561023f57600080fd5b506065546066546067546068546102b39365ffffffffffff80821694600160301b8304909116936001600160a01b03600160601b938490048116946001600160501b0380851695600160501b8604821695600160a01b9004909116936001600160601b038082169492909104909116911689565b6040805165ffffffffffff9a8b1681529990981660208a01526001600160a01b03968716978901979097526001600160501b0394851660608901529284166080880152921660a08601526001600160601b0391821660c08601529190911660e0840152166101008201526101200161014f565b34801561033257600080fd5b506101186106e4565b34801561034757600080fd5b506068546001600160601b031661016d565b34801561036557600080fd5b506033546001600160a01b031661013b565b34801561038357600080fd5b5061016d6106f8565b34801561039857600080fd5b5061016d61083e565b3480156103ad57600080fd5b5061013b7f000000000000000000000000000000000000000000000000000000000000000081565b6101186103e3366004610eee565b61089e565b3480156103f457600080fd5b50610118610cb1565b34801561040957600080fd5b50610118610418366004610eca565b610d2d565b600054610100900460ff161580801561043d5750600054600160ff909116105b806104575750303b158015610457575060005460ff166001145b6104bf5760405162461bcd60e51b815260206004820152602e60248201527f496e697469616c697a61626c653a20636f6e747261637420697320616c72656160448201526d191e481a5b9a5d1a585b1a5e995960921b60648201526084015b60405180910390fd5b6000805460ff1916600117905580156104e2576000805461ff0019166101001790555b8160656104ef8282610f7f565b505060675461050d90600160601b90046001600160a01b0316610da6565b7f4bd2df47a307bf21fad25ee73f24319e155b7876433792fd09d66d1cd5458d568260405161053c9190611158565b60405180910390a1801561058a576000805461ff0019169055604051600181527f7f26b83ff96e1f2b6a682f133852f6798a09c465da95921460cefb38474024989060200160405180910390a15b5050565b6065546000906105b09065ffffffffffff80821691600160301b900416611262565b65ffffffffffff16905090565b336000908152606a6020908152604080832081518083019092525465ffffffffffff8116808352600160301b9091046001600160501b03169282019290925291906106066106f8565b6106109190611288565b9050600081836020015161062491906112ab565b90506000816001600160501b0316116106735760405162461bcd60e51b81526020600482015260116024820152701393d512125391c81513c8149151955391607a1b60448201526064016104b6565b336000818152606a602052604080822080546001600160501b03808816600160301b026fffffffffffffffffffff0000000000001990921691909117909155905190841680156108fc0292909190818181858888f193505050501580156106de573d6000803e3d6000fd5b50505050565b6106ec610df8565b6106f66000610da6565b565b604080516101208101825260655465ffffffffffff8082168352600160301b82041660208301526001600160a01b03600160601b918290048116938301939093526066546001600160501b038082166060850152600160501b820481166080850152600160a01b9091041660a08301526067546001600160601b0380821660c085018190529290910490931660e08301526068549092166101008201819052600092428211156107ad57600019935050505090565b826020015165ffffffffffff16836000015165ffffffffffff16036107e0575050608001516001600160501b0316919050565b60004282116107f8576107f383836112cb565b610802565b61080283426112cb565b9050808460a001516001600160501b031661081d91906112de565b84606001516001600160501b031661083591906112cb565b94505050505090565b60685460675460009161085d916001600160601b0391821691166112f5565b60665461087a9190600160a01b90046001600160501b0316611315565b60665461089091906001600160501b03166112f5565b6001600160601b0316905090565b604080516101208101825260655465ffffffffffff8082168352600160301b82041660208301526001600160a01b03600160601b9182900481169383018490526066546001600160501b038082166060860152600160501b820481166080860152600160a01b9091041660a08401526067546001600160601b0380821660c08601529290041660e08301526068541661010082018190528392904210156109725760405162461bcd60e51b81526020600482015260086024820152672a27a79029a7a7a760c11b60448201526064016104b6565b600061097c6106f8565b90506109908165ffffffffffff86166112de565b3410156109cd5760405162461bcd60e51b815260206004820152600b60248201526a57524f4e4720505249434560a81b60448201526064016104b6565b606980548591906000906109ea90849065ffffffffffff16611338565b92506101000a81548165ffffffffffff021916908365ffffffffffff1602179055506000836000015185610a1e9190611338565b9050836020015165ffffffffffff168165ffffffffffff161115610a6f5760405162461bcd60e51b8152602060048201526008602482015267544f4f204d414e5960c01b60448201526064016104b6565b336000908152606a602052604081208054879290610a9690849065ffffffffffff16611338565b825465ffffffffffff9182166101009390930a928302919092021990911617905550336000908152606a602052604090208054349190600690610aeb9084906001600160501b03600160301b90910416611357565b92506101000a8154816001600160501b0302191690836001600160501b03160217905550600084600001516001610b229190611338565b65ffffffffffff1690505b8165ffffffffffff168111610baf576040516340c10f1960e01b8152336004820152602481018290526001600160a01b038516906340c10f1990604401600060405180830381600087803b158015610b8457600080fd5b505af1158015610b98573d6000803e3d6000fd5b505050508080610ba790611377565b915050610b2d565b506065805465ffffffffffff191665ffffffffffff831617905560405133907fa7d55185d9f0ccd87765b02fe2004d07906dc52594cb344d4f09e9b9d308752590610bff90889034908990611390565b60405180910390a2836020015165ffffffffffff168165ffffffffffff1603610ca9576066805469ffffffffffffffffffff60501b1916600160501b6001600160501b03851602179055606954600090610c619065ffffffffffff16846112de565b60e08601516040519192506001600160a01b03169082156108fc029083906000818181858888f19350505050158015610c9e573d6000803e3d6000fd5b50610ca7610e52565b505b505050505050565b610cb9610df8565b6068546001600160601b03164210610cfe5760405162461bcd60e51b8152602060048201526008602482015267544f4f204c41544560c01b60448201526064016104b6565b60658054600160301b65ffffffffffff8216026bffffffffffff000000000000199091161790556106f6610e52565b610d35610df8565b6001600160a01b038116610d9a5760405162461bcd60e51b815260206004820152602660248201527f4f776e61626c653a206e6577206f776e657220697320746865207a65726f206160448201526564647265737360d01b60648201526084016104b6565b610da381610da6565b50565b603380546001600160a01b038381166001600160a01b0319831681179093556040519116919082907f8be0079c531659141344cd1fd0a4f28419497f9722a3daafe3b4186f6b6457e090600090a35050565b6033546001600160a01b031633146106f65760405162461bcd60e51b815260206004820181905260248201527f4f776e61626c653a2063616c6c6572206973206e6f7420746865206f776e657260448201526064016104b6565b7ffc3c7b31ff5b18b56f529effd09b4701e11c398a79eabf90e13c8c764e63f9276065604051610e829190611469565b60405180910390a1565b60006101208284031215610e9f57600080fd5b50919050565b6001600160a01b0381168114610da357600080fd5b8035610ec581610ea5565b919050565b600060208284031215610edc57600080fd5b8135610ee781610ea5565b9392505050565b600060208284031215610f0057600080fd5b5035919050565b65ffffffffffff81168114610da357600080fd5b60008135610f2881610f07565b92915050565b60008135610f2881610ea5565b6001600160501b0381168114610da357600080fd5b60008135610f2881610f3b565b6001600160601b0381168114610da357600080fd5b60008135610f2881610f5d565b8135610f8a81610f07565b65ffffffffffff811665ffffffffffff1983541617825550610fdb610fb160208401610f1b565b82546bffffffffffff000000000000191660309190911b6bffffffffffff00000000000016178255565b61100f610fea60408401610f2e565b82546001600160601b031660609190911b6bffffffffffffffffffffffff1916178255565b6001810161104261102260608501610f50565b825469ffffffffffffffffffff19166001600160501b0391909116178255565b61108161105160808501610f50565b82805469ffffffffffffffffffff60501b191660509290921b69ffffffffffffffffffff60501b16919091179055565b6110c061109060a08501610f50565b82805469ffffffffffffffffffff60a01b191660a09290921b69ffffffffffffffffffff60a01b16919091179055565b50600281016110f66110d460c08501610f72565b82546bffffffffffffffffffffffff19166001600160601b0391909116178255565b611105610fea60e08501610f2e565b5061058a6111166101008401610f72565b600383016001600160601b0382166001600160601b03198254161781555050565b8035610ec581610f07565b8035610ec581610f3b565b8035610ec581610f5d565b6101208101823561116881610f07565b65ffffffffffff16825261117e60208401611137565b65ffffffffffff16602083015261119760408401610eba565b6001600160a01b031660408301526111b160608401611142565b6001600160501b031660608301526111cb60808401611142565b6001600160501b031660808301526111e560a08401611142565b6001600160501b031660a08301526111ff60c0840161114d565b6001600160601b031660c083015261121960e08401610eba565b6001600160a01b031660e083015261010061123584820161114d565b6001600160601b038116848301525b505092915050565b634e487b7160e01b600052601160045260246000fd5b65ffffffffffff8281168282160390808211156112815761128161124c565b5092915050565b6001600160501b038181168382160280821691908281146112445761124461124c565b6001600160501b038281168282160390808211156112815761128161124c565b81810381811115610f2857610f2861124c565b8082028115828204841417610f2857610f2861124c565b6001600160601b038281168282160390808211156112815761128161124c565b6001600160601b038181168382160280821691908281146112445761124461124c565b65ffffffffffff8181168382160190808211156112815761128161124c565b6001600160501b038181168382160190808211156112815761128161124c565b6000600182016113895761138961124c565b5060010190565b60006101608201905065ffffffffffff80861683528460208401528084511660408401528060208501511660608401525060408301516113db60808401826001600160a01b03169052565b5060608301516001600160501b03811660a08401525060808301516001600160501b03811660c08401525060a08301516001600160501b03811660e08401525060c0830151610100611437818501836001600160601b03169052565b60e08501516001600160a01b0316610120850152909301516001600160601b0316610140909201919091529392505050565b815465ffffffffffff8082168352603082901c166020830152606090811c604083015260018301546001600160501b0380821683850152605082901c8116608085015260a091821c169083015260028301546001600160601b0380821660c0850152911c60e0830152600383015416610100820181905261012082019061128156fea2646970667358221220e3e41c538b032ac15b1939324d2e7ff9189fb75d14106ce60eb3b45b9389425c64736f6c63430008130033",
    "linkReferences": {}
  },
  "methodIdentifiers": {
    "amountSold()": "52a16bb0",
    "available()": "48a0d754",
    "buy(uint256)": "d96a094a",
    "cancel()": "ea8a1af0",
    "editionContract()": "40ae8aba",
    "factory()": "c45a0155",
    "getPrice()": "98d5fdca",
    "initialize((uint48,uint48,address,uint80,uint80,uint80,uint96,address,uint96))": "38722c25",
    "lowestPrice()": "be29b056",
    "owner()": "8da5cb5b",
    "receipts(address)": "4de4797b",
    "refund()": "590e1ae3",
    "renounceOwnership()": "715018a6",
    "sale()": "6ad1fe02",
    "startTime()": "78e97925",
    "transferOwnership(address)": "f2fde38b"
  },
  "id": 40
}